{
  "transactions": [
    {
      "hash": "0x082d3e5ccd65d7e09d392d2ba83c86357ca58792a57a1e7147ee1d9d6e25194f",
      "transactionType": "CREATE",
      "contractName": "MockUSDC",
      "contractAddress": "0x76fbfc7ce378668db249850094156338ee546f83",
      "function": null,
      "arguments": null,
      "transaction": {
        "from": "0x61fedd6bc4ef1ab11cf8b6cc8f9b4faeb41b6f55",
        "gas": "0xa089e",
        "value": "0x0",
        "input": "0x60c060405260096080908152684d6f636b205553444360b81b60a0525f906100279082610108565b506040805180820190915260058152646d5553444360d81b60208201526001906100519082610108565b506002805460ff1916600617905534801561006a575f80fd5b506101c7565b634e487b7160e01b5f52604160045260245ffd5b600181811c9082168061009857607f821691505b6020821081036100b657634e487b7160e01b5f52602260045260245ffd5b50919050565b601f82111561010357805f5260205f20601f840160051c810160208510156100e15750805b601f840160051c820191505b81811015610100575f81556001016100ed565b50505b505050565b81516001600160401b0381111561012157610121610070565b6101358161012f8454610084565b846100bc565b602080601f831160018114610168575f84156101515750858301515b5f19600386901b1c1916600185901b1785556101bf565b5f85815260208120601f198616915b8281101561019657888601518255948401946001909101908401610177565b50858210156101b357878501515f19600388901b60f8161c191681555b505060018460011b0185555b505050505050565b6106d6806101d45f395ff3fe608060405234801561000f575f80fd5b506004361061009b575f3560e01c806340c10f191161006357806340c10f191461012957806370a082311461013e57806395d89b411461015d578063a9059cbb14610165578063dd62ed3e14610178575f80fd5b806306fdde031461009f578063095ea7b3146100bd57806318160ddd146100e057806323b872dd146100f7578063313ce5671461010a575b5f80fd5b6100a76101a2565b6040516100b49190610515565b60405180910390f35b6100d06100cb36600461057c565b61022d565b60405190151581526020016100b4565b6100e960035481565b6040519081526020016100b4565b6100d06101053660046105a4565b610299565b6002546101179060ff1681565b60405160ff90911681526020016100b4565b61013c61013736600461057c565b610349565b005b6100e961014c3660046105dd565b60046020525f908152604090205481565b6100a76103cf565b6100d061017336600461057c565b6103dc565b6100e96101863660046105fd565b600560209081525f928352604080842090915290825290205481565b5f80546101ae9061062e565b80601f01602080910402602001604051908101604052809291908181526020018280546101da9061062e565b80156102255780601f106101fc57610100808354040283529160200191610225565b820191905f5260205f20905b81548152906001019060200180831161020857829003601f168201915b505050505081565b335f8181526005602090815260408083206001600160a01b038716808552925280832085905551919290917f8c5be1e5ebec7d5bd14f71427d1e84f3dd0314c0f7b2291e5b200ac8c7c3b925906102879086815260200190565b60405180910390a35060015b92915050565b6001600160a01b0383165f908152600560209081526040808320338452909152812054828110156102fd5760405162461bcd60e51b8152602060048201526009602482015268414c4c4f57414e434560b81b60448201526064015b60405180910390fd5b5f1981146103335761030f838261067a565b6001600160a01b0386165f9081526005602090815260408083203384529091529020555b61033e8585856103f1565b506001949350505050565b8060035f82825461035a919061068d565b90915550506001600160a01b0382165f908152600460205260408120805483929061038690849061068d565b90915550506040518181526001600160a01b038316905f907fddf252ad1be2c89b69c2b068fc378daa952ba7f163c4a11628f55a4df523b3ef9060200160405180910390a35050565b600180546101ae9061062e565b5f6103e83384846103f1565b50600192915050565b6001600160a01b0382166104335760405162461bcd60e51b81526020600482015260096024820152682d22a927afa0a2222960b91b60448201526064016102f4565b6001600160a01b0383165f90815260046020526040902054818110156104855760405162461bcd60e51b815260206004820152600760248201526642414c414e434560c81b60448201526064016102f4565b6001600160a01b038085165f908152600460205260408082208585039055918516815290812080548492906104bb90849061068d565b92505081905550826001600160a01b0316846001600160a01b03167fddf252ad1be2c89b69c2b068fc378daa952ba7f163c4a11628f55a4df523b3ef8460405161050791815260200190565b60405180910390a350505050565b5f602080835283518060208501525f5b8181101561054157858101830151858201604001528201610525565b505f604082860101526040601f19601f8301168501019250505092915050565b80356001600160a01b0381168114610577575f80fd5b919050565b5f806040838503121561058d575f80fd5b61059683610561565b946020939093013593505050565b5f805f606084860312156105b6575f80fd5b6105bf84610561565b92506105cd60208501610561565b9150604084013590509250925092565b5f602082840312156105ed575f80fd5b6105f682610561565b9392505050565b5f806040838503121561060e575f80fd5b61061783610561565b915061062560208401610561565b90509250929050565b600181811c9082168061064257607f821691505b60208210810361066057634e487b7160e01b5f52602260045260245ffd5b50919050565b634e487b7160e01b5f52601160045260245ffd5b8181038181111561029357610293610666565b808201808211156102935761029361066656fea26469706673582212205e6f809472e9568f20b5146bb4f5f536e79e31dd0a7e6a6373f04190389ced1464736f6c63430008180033",
        "nonce": "0x11",
        "chainId": "0xaa36a7"
      },
      "additionalContracts": [],
      "isFixedGasLimit": false
    },
    {
      "hash": "0x4cb27e7e56a5e4e83e5700b60eae6fdf109ef968ea0a9951cab61b81de22eac2",
      "transactionType": "CALL",
      "contractName": "MockUSDC",
      "contractAddress": "0x76fbfc7ce378668db249850094156338ee546f83",
      "function": "mint(address,uint256)",
      "arguments": [
        "0x61fEDd6BC4ef1ab11cf8b6CC8F9b4Faeb41B6f55",
        "10000000000000"
      ],
      "transaction": {
        "from": "0x61fedd6bc4ef1ab11cf8b6cc8f9b4faeb41b6f55",
        "to": "0x76fbfc7ce378668db249850094156338ee546f83",
        "gas": "0x17057",
        "value": "0x0",
        "input": "0x40c10f1900000000000000000000000061fedd6bc4ef1ab11cf8b6cc8f9b4faeb41b6f55000000000000000000000000000000000000000000000000000009184e72a000",
        "nonce": "0x12",
        "chainId": "0xaa36a7"
      },
      "additionalContracts": [],
      "isFixedGasLimit": false
    },
    {
      "hash": "0xe393436fc3ebd9adc9d67d3eaea8105fe8dd9d0f7bda5262bc8a5dfee29c3844",
      "transactionType": "CREATE",
      "contractName": "EscrowOrderBook",
      "contractAddress": "0x23dfa1e657686db18d6a598dbdf75797416fdb5a",
      "function": null,
      "arguments": [
        "0x76fBfc7cE378668DB249850094156338Ee546f83"
      ],
      "transaction": {
        "from": "0x61fedd6bc4ef1ab11cf8b6cc8f9b4faeb41b6f55",
        "gas": "0x21e2a2",
        "value": "0x0",
        "input": "0x60c060405260018055600160025534801562000019575f80fd5b5060405162001e7938038062001e798339810160408190526200003c916200013f565b5f80546001600160a01b0319163390811782556040519091907f8be0079c531659141344cd1fd0a4f28419497f9722a3daafe3b4186f6b6457e0908290a36001600160a01b038116620000c35760405162461bcd60e51b815260206004820152600b60248201526a535441424c455f5a45524f60a81b604482015260640160405180910390fd5b6001600160a01b03811660808190526040805163313ce56760e01b8152905163313ce567916004808201926020929091908290030181865afa1580156200010c573d5f803e3d5ffd5b505050506040513d601f19601f820116820180604052508101906200013291906200016e565b60ff1660a0525062000190565b5f6020828403121562000150575f80fd5b81516001600160a01b038116811462000167575f80fd5b9392505050565b5f602082840312156200017f575f80fd5b815160ff8116811462000167575f80fd5b60805160a051611c81620001f85f395f61010f01525f818161014d0152818161052a015281816106a60152818161089c01528181610bb701528181610d0f01528181610ebb01528181611100015281816114050152818161161801526116e80152611c815ff3fe608060405234801561000f575f80fd5b5060043610610106575f3560e01c80635c975abb1161009e578063a4c216181161006e578063a4c2161814610244578063a60e965314610257578063a85c38ef1461026a578063e8d85e641461031c578063f2fde38b1461032f575f80fd5b80635c975abb146101fe57806361b8ce8c146102215780638456cb591461022a5780638da5cb5b14610232575f80fd5b80633bf674b3116100d95780633bf674b3146101bd5780633f4ba83a146101d057806340e58ee5146101d857806354e6fd7a146101eb575f80fd5b80632104d3fa1461010a57806322be3de1146101485780632b0f9d21146101875780633b4cbd521461019c575b5f80fd5b6101317f000000000000000000000000000000000000000000000000000000000000000081565b60405160ff90911681526020015b60405180910390f35b61016f7f000000000000000000000000000000000000000000000000000000000000000081565b6040516001600160a01b03909116815260200161013f565b61019a610195366004611987565b610342565b005b6101af6101aa3660046119b9565b6105e0565b60405190815260200161013f565b61019a6101cb366004611987565b61073e565b61019a6109d5565b61019a6101e6366004611987565b610a34565b6101af6101f93660046119b9565b610df9565b5f5461021190600160a01b900460ff1681565b604051901515815260200161013f565b6101af60025481565b61019a610f3d565b5f5461016f906001600160a01b031681565b61019a610252366004611987565b610fa2565b61019a610265366004611987565b611229565b610303610278366004611987565b600360208190525f918252604090912080546001820154600283015493830154600484015460058501546006860154600787015460088801546009890154600a8a0154600b909a0154989a6001600160a01b039889169a90891699978916989687169796909516959394929360ff92831693919267ffffffffffffffff821691600160401b9004168d565b60405161013f9d9c9b9a99989796959493929190611a3e565b61019a61032a366004611acd565b6114bb565b61019a61033d366004611af7565b6117f1565b5f54600160a01b900460ff16156103745760405162461bcd60e51b815260040161036b90611b10565b60405180910390fd5b6001546001146103965760405162461bcd60e51b815260040161036b90611b30565b60026001555f81815260036020526040812090600b820154600160401b900460ff1660038111156103c9576103c9611a0a565b146103e65760405162461bcd60e51b815260040161036b90611b54565b600a810154156104225760405162461bcd60e51b8152602060048201526007602482015266414c524541445960c81b604482015260640161036b565b600881015460ff161561047e5760018101546001600160a01b031633146104795760405162461bcd60e51b815260206004820152600b60248201526a27a7262cafa9a2a62622a960a91b604482015260640161036b565b6104f2565b60038101546001600160a01b03166104a9576003810180546001600160a01b031916331790556104f2565b60038101546001600160a01b031633146104f25760405162461bcd60e51b815260206004820152600a60248201526914d15313115497d4d15560b21b604482015260640161036b565b5f610505826006015483600701546118b2565b6040516323b872dd60e01b8152336004820152306024820152604481018290529091507f00000000000000000000000000000000000000000000000000000000000000006001600160a01b0316906323b872dd906064016020604051808303815f875af1158015610578573d5f803e3d5ffd5b505050506040513d601f19601f8201168201806040525081019061059c9190611b74565b6105d35760405162461bcd60e51b81526020600482015260086024820152672a2920a729a322a960c11b604482015260640161036b565b600a909101555060018055565b5f8054600160a01b900460ff161561060a5760405162461bcd60e51b815260040161036b90611b10565b6106158585846118c6565b60028054905f61062483611bae565b909155505f81815260036020819052604091829020838155600180820180546001600160a01b03199081163390811790925560088401805460ff1916841790556005840180546001600160a01b038c811691841691909117909155600685018d9055600785018c90559484018054821683179055600b840180546004860180547f0000000000000000000000000000000000000000000000000000000000000000909816979093169690961790915568ffffffffffffffffff1990941667ffffffffffffffff891617909355925193945092909184917fc602f2a10d150b683704b3339189c8e8f821aa955a680fdc458ffeba2481bd509161072d9189908c908c908b90611bc6565b60405180910390a350949350505050565b5f54600160a01b900460ff16156107675760405162461bcd60e51b815260040161036b90611b10565b6001546001146107895760405162461bcd60e51b815260040161036b90611b30565b60026001555f81815260036020526040812090600b820154600160401b900460ff1660038111156107bc576107bc611a0a565b146107d95760405162461bcd60e51b815260040161036b90611b54565b600b81015467ffffffffffffffff1642116108245760405162461bcd60e51b815260206004820152600b60248201526a1393d517d156141254915160aa1b604482015260640161036b565b5f81600a015411801561083957506009810154155b61086e5760405162461bcd60e51b815260040161036b9060208082526004908201526310d3d39160e21b604082015260600190565b600b8101805460ff60401b1916600360401b179055600a810180545f90915560028201546001600160a01b037f000000000000000000000000000000000000000000000000000000000000000081169163a9059cbb9116156108dd5760028401546001600160a01b03166108ec565b60018401546001600160a01b03165b6040516001600160e01b031960e084901b1681526001600160a01b039091166004820152602481018490526044016020604051808303815f875af1158015610936573d5f803e3d5ffd5b505050506040513d601f19601f8201168201806040525081019061095a9190611b74565b6109925760405162461bcd60e51b81526020600482015260096024820152682820acafa12aaca2a960b91b604482015260640161036b565b827fd1160b2b2bf9a90acaf59703fcd7f6d196285e1a2fb63f89b0c8a688f94d8bbd826040516109c491815260200190565b60405180910390a250506001805550565b5f546001600160a01b031633146109fe5760405162461bcd60e51b815260040161036b90611bfe565b5f805460ff60a01b1916815560405133917f5db9ee0a495bf2e6ff9c91a7834c1ba4fdd244a5e8aa4e537bd38aeae4b073aa91a2565b5f54600160a01b900460ff1615610a5d5760405162461bcd60e51b815260040161036b90611b10565b600154600114610a7f5760405162461bcd60e51b815260040161036b90611b30565b60026001555f81815260036020526040812090600b820154600160401b900460ff166003811115610ab257610ab2611a0a565b14610acf5760405162461bcd60e51b815260040161036b90611b54565b60018101546001600160a01b03163314610b135760405162461bcd60e51b815260206004820152600560248201526426a0a5a2a960d91b604482015260640161036b565b600881015460ff1615610c7857600981015415610b615760405162461bcd60e51b815260206004820152600c60248201526b434f554e5445525f4c4f434b60a01b604482015260640161036b565b600a81015415610c5e57600b81018054600160411b60ff60401b19909116179055600a810180545f909155600382015460405163a9059cbb60e01b81526001600160a01b039182166004820152602481018390527f00000000000000000000000000000000000000000000000000000000000000009091169063a9059cbb906044016020604051808303815f875af1158015610bff573d5f803e3d5ffd5b505050506040513d601f19601f82011682018060405250810190610c239190611b74565b610c585760405162461bcd60e51b815260206004820152600660248201526514915195539160d21b604482015260640161036b565b50610dc7565b600b8101805460ff60401b1916600160411b179055610dc7565b600a81015415610cb95760405162461bcd60e51b815260206004820152600c60248201526b434f554e5445525f4c4f434b60a01b604482015260640161036b565b600981015415610db157600b81018054600160411b60ff60401b199091161790556009810180545f909155600282015460405163a9059cbb60e01b81526001600160a01b039182166004820152602481018390527f00000000000000000000000000000000000000000000000000000000000000009091169063a9059cbb906044016020604051808303815f875af1158015610d57573d5f803e3d5ffd5b505050506040513d601f19601f82011682018060405250810190610d7b9190611b74565b610c585760405162461bcd60e51b81526020600482015260076024820152662922a32aa7221960c91b604482015260640161036b565b600b8101805460ff60401b1916600160411b1790555b60405182907fc41f4ceb2938876c35e61b705e9d2f18a02c4a26ce5e049a6308a943d46851b3905f90a2505060018055565b5f8054600160a01b900460ff1615610e235760405162461bcd60e51b815260040161036b90611b10565b610e2e8585846118c6565b60028054905f610e3d83611bae565b909155505f81815260036020526040808220838155600181018054336001600160a01b0319918216811790925560088301805460ff1916905560058301805482166001600160a01b038b811691909117909155600684018c9055600784018b9055600284018054831684179055600b840180546004860180549094167f00000000000000000000000000000000000000000000000000000000000000009093169290921790925567ffffffffffffffff891668ffffffffffffffffff19909116179055915193945092909184917fc602f2a10d150b683704b3339189c8e8f821aa955a680fdc458ffeba2481bd509161072d9189908c908c908b90611bc6565b5f546001600160a01b03163314610f665760405162461bcd60e51b815260040161036b90611bfe565b5f805460ff60a01b1916600160a01b17815560405133917f62e78cea01bee320cd4e420270b5ea74000d11b0c9f74754ebdbfc544b05a25891a2565b5f54600160a01b900460ff1615610fcb5760405162461bcd60e51b815260040161036b90611b10565b600154600114610fed5760405162461bcd60e51b815260040161036b90611b30565b60026001555f81815260036020526040812090600b820154600160401b900460ff16600381111561102057611020611a0a565b1461103d5760405162461bcd60e51b815260040161036b90611b54565b600b81015467ffffffffffffffff1642116110885760405162461bcd60e51b815260206004820152600b60248201526a1393d517d156141254915160aa1b604482015260640161036b565b5f816009015411801561109d5750600a810154155b6110d25760405162461bcd60e51b815260040161036b9060208082526004908201526310d3d39160e21b604082015260600190565b600b8101805460ff60401b1916600360401b1790556009810180545f90915560038201546001600160a01b037f000000000000000000000000000000000000000000000000000000000000000081169163a9059cbb9116156111415760038401546001600160a01b0316611150565b60018401546001600160a01b03165b6040516001600160e01b031960e084901b1681526001600160a01b039091166004820152602481018490526044016020604051808303815f875af115801561119a573d5f803e3d5ffd5b505050506040513d601f19601f820116820180604052508101906111be9190611b74565b6111f75760405162461bcd60e51b815260206004820152600a6024820152692820acafa9a2a62622a960b11b604482015260640161036b565b827f9e55a9a95074ae9584bbdae16849aa5458a0c8377b39e698c664db39e0e8120f826040516109c491815260200190565b5f54600160a01b900460ff16156112525760405162461bcd60e51b815260040161036b90611b10565b6001546001146112745760405162461bcd60e51b815260040161036b90611b30565b60026001555f81815260036020526040812090600b820154600160401b900460ff1660038111156112a7576112a7611a0a565b146112c45760405162461bcd60e51b815260040161036b90611b54565b6009810154156113005760405162461bcd60e51b8152602060048201526007602482015266414c524541445960c81b604482015260640161036b565b600881015460ff1661135a5760018101546001600160a01b031633146113555760405162461bcd60e51b815260206004820152600a60248201526927a7262cafa12aaca2a960b11b604482015260640161036b565b6113cd565b60028101546001600160a01b0316611385576002810180546001600160a01b031916331790556113cd565b60028101546001600160a01b031633146113cd5760405162461bcd60e51b8152602060048201526009602482015268109556515497d4d15560ba1b604482015260640161036b565b5f6113e0826006015483600701546118b2565b6040516323b872dd60e01b8152336004820152306024820152604481018290529091507f00000000000000000000000000000000000000000000000000000000000000006001600160a01b0316906323b872dd906064016020604051808303815f875af1158015611453573d5f803e3d5ffd5b505050506040513d601f19601f820116820180604052508101906114779190611b74565b6114ae5760405162461bcd60e51b81526020600482015260086024820152672a2920a729a322a960c11b604482015260640161036b565b6009909101555060018055565b5f54600160a01b900460ff16156114e45760405162461bcd60e51b815260040161036b90611b10565b6001546001146115065760405162461bcd60e51b815260040161036b90611b30565b60026001555f82815260036020526040812090600b820154600160401b900460ff16600381111561153957611539611a0a565b146115565760405162461bcd60e51b815260040161036b90611b54565b5f816009015411801561156c57505f81600a0154115b6115a05760405162461bcd60e51b81526020600482015260056024820152644c4f434b5360d81b604482015260640161036b565b5f6115b3826006015483600701546118b2565b600b8301805460ff60401b1916600160401b17905590505f6001600160a01b038416156115e057836115ef565b60038301546001600160a01b03165b60405163a9059cbb60e01b81526001600160a01b038083166004830152602482018590529192507f00000000000000000000000000000000000000000000000000000000000000009091169063a9059cbb906044016020604051808303815f875af1158015611660573d5f803e3d5ffd5b505050506040513d601f19601f820116820180604052508101906116849190611b74565b6116bd5760405162461bcd60e51b815260206004820152600a6024820152692820acafa9a2a62622a960b11b604482015260640161036b565b600383015460405163a9059cbb60e01b81526001600160a01b039182166004820152602481018490527f00000000000000000000000000000000000000000000000000000000000000009091169063a9059cbb906044016020604051808303815f875af1158015611730573d5f803e3d5ffd5b505050506040513d601f19601f820116820180604052508101906117549190611b74565b61178e5760405162461bcd60e51b815260206004820152600b60248201526a14915515549397d0d3d31360aa1b604482015260640161036b565b60038301546002840154604080516001600160a01b039384168152929091166020830152810183905285907f6c7da5d74e17e1b2aaa2764ed920deb63eabf5ab66f39641a37bf69a731ef0409060600160405180910390a2505060018055505050565b5f546001600160a01b0316331461181a5760405162461bcd60e51b815260040161036b90611bfe565b6001600160a01b0381166118595760405162461bcd60e51b815260040161036b906020808252600490820152635a45524f60e01b604082015260600190565b5f80546040516001600160a01b03808516939216917f8be0079c531659141344cd1fd0a4f28419497f9722a3daafe3b4186f6b6457e091a35f80546001600160a01b0319166001600160a01b0392909216919091179055565b5f6118bd8284611c21565b90505b92915050565b5f83116118fe5760405162461bcd60e51b8152602060048201526006602482015265105353d5539560d21b604482015260640161036b565b5f82116119355760405162461bcd60e51b8152602060048201526005602482015264505249434560d81b604482015260640161036b565b61194142610258611c38565b8167ffffffffffffffff16116119825760405162461bcd60e51b815260206004820152600660248201526545585049525960d01b604482015260640161036b565b505050565b5f60208284031215611997575f80fd5b5035919050565b80356001600160a01b03811681146119b4575f80fd5b919050565b5f805f80608085870312156119cc575f80fd5b84359350602085013592506119e36040860161199e565b9150606085013567ffffffffffffffff811681146119ff575f80fd5b939692955090935050565b634e487b7160e01b5f52602160045260245ffd5b60048110611a3a57634e487b7160e01b5f52602160045260245ffd5b9052565b8d81526001600160a01b038d811660208301528c811660408301528b811660608301528a81166080830152891660a082015260c0810188905260e081018790528515156101008201526101208101859052610140810184905267ffffffffffffffff83166101608201526101a08101611abb610180830184611a1e565b9e9d5050505050505050505050505050565b5f8060408385031215611ade575f80fd5b82359150611aee6020840161199e565b90509250929050565b5f60208284031215611b07575f80fd5b6118bd8261199e565b60208082526006908201526514105554d15160d21b604082015260600190565b6020808252600a90820152695245454e5452414e435960b01b604082015260600190565b60208082526006908201526553544154555360d01b604082015260600190565b5f60208284031215611b84575f80fd5b81518015158114611b93575f80fd5b9392505050565b634e487b7160e01b5f52601160045260245ffd5b5f60018201611bbf57611bbf611b9a565b5060010190565b94151585526001600160a01b039390931660208501526040840191909152606083015267ffffffffffffffff16608082015260a00190565b6020808252600990820152682727aa2fa7aba722a960b91b604082015260600190565b80820281158282048414176118c0576118c0611b9a565b808201808211156118c0576118c0611b9a56fea264697066735822122027d931e531b4266931619bcc09906fc0c66fd00898d008ff0b323f8a630ae53e64736f6c6343000818003300000000000000000000000076fbfc7ce378668db249850094156338ee546f83",
        "nonce": "0x13",
        "chainId": "0xaa36a7"
      },
      "additionalContracts": [],
      "isFixedGasLimit": false
    },
    {
      "hash": "0x29e2b407f6a38a80d418c97ab6910dfa6a4d8eaca7baa4f942e76a7689efa5fa",
      "transactionType": "CREATE",
      "contractName": "ProjectRegistry",
      "contractAddress": "0x5dc0110b057331018693ffcf96983fd02c91ad0e",
      "function": null,
      "arguments": null,
      "transaction": {
        "from": "0x61fedd6bc4ef1ab11cf8b6cc8f9b4faeb41b6f55",
        "gas": "0x1da952",
        "value": "0x0",
        "input": "0x608060405234801561000f575f80fd5b50600380546001600160a01b031916331790556119a58061002f5f395ff3fe608060405234801561000f575f80fd5b50600436106100b1575f3560e01c806391c9b2681161006e57806391c9b26814610164578063b40ba05c14610189578063d9fae32d146101c7578063e7e4a858146101dc578063f2fde38b146101ef578063fbf9efbf14610202575f80fd5b806329cfce41146100b55780633bcff3b0146100d35780634187aa98146100e45780634fa691e2146101045780635f5f2c0c146101245780638da5cb5b14610139575b5f80fd5b6100bd610215565b6040516100ca9190611394565b60405180910390f35b6001546040519081526020016100ca565b6100f76100f23660046113f6565b610587565b6040516100ca919061140d565b6101176101123660046114c3565b61062d565b6040516100ca91906114fd565b61012c61088b565b6040516100ca919061150f565b60035461014c906001600160a01b031681565b6040516001600160a01b0390911681526020016100ca565b6101776101723660046114c3565b61095f565b6040516100ca96959493929190611564565b6101b76101973660046114c3565b805160208183018101805160028252928201919093012091525460ff1681565b60405190151581526020016100ca565b6101da6101d53660046115dc565b610b42565b005b6101da6101ea36600461166f565b610d70565b6101da6101fd3660046116c2565b610e58565b6101da6102103660046115dc565b610f18565b60605f805b60015481101561027e575f60018281548110610238576102386116db565b905f5260205f200160405161024d9190611727565b9081526040519081900360200190206004015460ff1615610276578161027281611799565b9250505b60010161021a565b505f8167ffffffffffffffff81111561029957610299611426565b6040519080825280602002602001820160405280156102d257816020015b6102bf61128d565b8152602001906001900390816102b75790505b5090505f805b60015481101561057e575f600182815481106102f6576102f66116db565b905f5260205f200160405161030b9190611727565b9081526040519081900360200190206004015460ff1615610576575f6001828154811061033a5761033a6116db565b905f5260205f200160405161034f9190611727565b90815260200160405180910390206040518060c00160405290815f82018054610377906116ef565b80601f01602080910402602001604051908101604052809291908181526020018280546103a3906116ef565b80156103ee5780601f106103c5576101008083540402835291602001916103ee565b820191905f5260205f20905b8154815290600101906020018083116103d157829003601f168201915b50505050508152602001600182018054610407906116ef565b80601f0160208091040260200160405190810160405280929190818152602001828054610433906116ef565b801561047e5780601f106104555761010080835404028352916020019161047e565b820191905f5260205f20905b81548152906001019060200180831161046157829003601f168201915b505050918352505060028201546001600160a01b031660208201526003820180546040909201916104ae906116ef565b80601f01602080910402602001604051908101604052809291908181526020018280546104da906116ef565b80156105255780601f106104fc57610100808354040283529160200191610525565b820191905f5260205f20905b81548152906001019060200180831161050857829003601f168201915b5050509183525050600482015460ff1615156020820152600590910154604090910152835184908490811061055c5761055c6116db565b6020026020010181905250818061057290611799565b9250505b6001016102d8565b50909392505050565b60018181548110610596575f80fd5b905f5260205f20015f9150905080546105ae906116ef565b80601f01602080910402602001604051908101604052809291908181526020018280546105da906116ef565b80156106255780601f106105fc57610100808354040283529160200191610625565b820191905f5260205f20905b81548152906001019060200180831161060857829003601f168201915b505050505081565b61063561128d565b60028260405161064591906117bd565b9081526040519081900360200190205460ff1661067d5760405162461bcd60e51b8152600401610674906117d8565b60405180910390fd5b5f8260405161068c91906117bd565b90815260200160405180910390206040518060c00160405290815f820180546106b4906116ef565b80601f01602080910402602001604051908101604052809291908181526020018280546106e0906116ef565b801561072b5780601f106107025761010080835404028352916020019161072b565b820191905f5260205f20905b81548152906001019060200180831161070e57829003601f168201915b50505050508152602001600182018054610744906116ef565b80601f0160208091040260200160405190810160405280929190818152602001828054610770906116ef565b80156107bb5780601f10610792576101008083540402835291602001916107bb565b820191905f5260205f20905b81548152906001019060200180831161079e57829003601f168201915b505050918352505060028201546001600160a01b031660208201526003820180546040909201916107eb906116ef565b80601f0160208091040260200160405190810160405280929190818152602001828054610817906116ef565b80156108625780601f1061083957610100808354040283529160200191610862565b820191905f5260205f20905b81548152906001019060200180831161084557829003601f168201915b5050509183525050600482015460ff161515602082015260059091015460409091015292915050565b60606001805480602002602001604051908101604052809291908181526020015f905b82821015610956578382905f5260205f200180546108cb906116ef565b80601f01602080910402602001604051908101604052809291908181526020018280546108f7906116ef565b80156109425780601f1061091957610100808354040283529160200191610942565b820191905f5260205f20905b81548152906001019060200180831161092557829003601f168201915b5050505050815260200190600101906108ae565b50505050905090565b80516020818301810180515f82529282019190930120915280548190610984906116ef565b80601f01602080910402602001604051908101604052809291908181526020018280546109b0906116ef565b80156109fb5780601f106109d2576101008083540402835291602001916109fb565b820191905f5260205f20905b8154815290600101906020018083116109de57829003601f168201915b505050505090806001018054610a10906116ef565b80601f0160208091040260200160405190810160405280929190818152602001828054610a3c906116ef565b8015610a875780601f10610a5e57610100808354040283529160200191610a87565b820191905f5260205f20905b815481529060010190602001808311610a6a57829003601f168201915b505050600284015460038501805494956001600160a01b03909216949193509150610ab1906116ef565b80601f0160208091040260200160405190810160405280929190818152602001828054610add906116ef565b8015610b285780601f10610aff57610100808354040283529160200191610b28565b820191905f5260205f20905b815481529060010190602001808311610b0b57829003601f168201915b505050506004830154600590930154919260ff1691905086565b6003546001600160a01b03163314610b6c5760405162461bcd60e51b815260040161067490611803565b600284604051610b7c91906117bd565b9081526040519081900360200190205460ff16610bab5760405162461bcd60e51b8152600401610674906117d8565b5f835111610be85760405162461bcd60e51b815260206004820152600a602482015269456d707479206e616d6560b01b6044820152606401610674565b604080518082019091526006815265506f696e747360d01b6020918201528151908201207f35b2c805c184fe2089ef51ab9cc5a8fead3fff34de87569fce78dc60e0d759631480610c7b5750604080518082019091526006815265546f6b656e7360d01b6020918201528151908201207f34f8140d8f24dbdd026b281e7791dd4aa98eaddb670c5b9b8af33e39b7daddce145b610cbc5760405162461bcd60e51b8152602060048201526012602482015271496e76616c6964206173736574207479706560701b6044820152606401610674565b5f8085604051610ccc91906117bd565b908152604051908190036020019020905060018101610ceb8582611872565b506002810180546001600160a01b0319166001600160a01b03851617905560038101610d178382611872565b5084604051610d2691906117bd565b60405180910390207f53b86e39b57b8be063aa375f5d57af31363e2ac716faab00355004f3fd96e8ef858585604051610d6193929190611932565b60405180910390a25050505050565b6003546001600160a01b03163314610d9a5760405162461bcd60e51b815260040161067490611803565b600282604051610daa91906117bd565b9081526040519081900360200190205460ff16610dd95760405162461bcd60e51b8152600401610674906117d8565b805f83604051610de991906117bd565b908152604051908190036020018120600401805492151560ff1990931692909217909155610e189083906117bd565b6040519081900381208215158252907f65a79a54a7224229f26031445ebd354312b3a2c7934c9433255f2499fdda08279060200160405180910390a25050565b6003546001600160a01b03163314610e825760405162461bcd60e51b815260040161067490611803565b6001600160a01b038116610ec75760405162461bcd60e51b815260206004820152600c60248201526b5a65726f206164647265737360a01b6044820152606401610674565b600380546001600160a01b038381166001600160a01b0319831681179093556040519116919082907f8be0079c531659141344cd1fd0a4f28419497f9722a3daafe3b4186f6b6457e0905f90a35050565b6003546001600160a01b03163314610f425760405162461bcd60e51b815260040161067490611803565b5f845111610f7f5760405162461bcd60e51b815260206004820152600a602482015269456d70747920736c756760b01b6044820152606401610674565b5f835111610fbc5760405162461bcd60e51b815260206004820152600a602482015269456d707479206e616d6560b01b6044820152606401610674565b600284604051610fcc91906117bd565b9081526040519081900360200190205460ff161561101d5760405162461bcd60e51b815260206004820152600e60248201526d50726f6a6563742065786973747360901b6044820152606401610674565b604080518082019091526006815265506f696e747360d01b6020918201528151908201207f35b2c805c184fe2089ef51ab9cc5a8fead3fff34de87569fce78dc60e0d7596314806110b05750604080518082019091526006815265546f6b656e7360d01b6020918201528151908201207f34f8140d8f24dbdd026b281e7791dd4aa98eaddb670c5b9b8af33e39b7daddce145b6110f15760405162461bcd60e51b8152602060048201526012602482015271496e76616c6964206173736574207479706560701b6044820152606401610674565b6040518060c00160405280858152602001848152602001836001600160a01b03168152602001828152602001600115158152602001428152505f8560405161113991906117bd565b908152604051908190036020019020815181906111569082611872565b506020820151600182019061116b9082611872565b5060408201516002820180546001600160a01b0319166001600160a01b03909216919091179055606082015160038201906111a69082611872565b50608082015160048201805460ff191691151591909117905560a0909101516005909101556001805480820182555f919091527fb10e2d527612073b26eecdfd717e6a320cf44b4afac2b0732d9fcbe2b7fa0cf6016112058582611872565b50600160028560405161121891906117bd565b908152604051908190036020018120805492151560ff19909316929092179091556112449085906117bd565b60405180910390207f9803a193045661ff203152952689c5f5228d2b5945423b84f7bd5f17d58ec97184848460405161127f93929190611932565b60405180910390a250505050565b6040518060c0016040528060608152602001606081526020015f6001600160a01b03168152602001606081526020015f151581526020015f81525090565b5f5b838110156112e55781810151838201526020016112cd565b50505f910152565b5f81518084526113048160208601602086016112cb565b601f01601f19169290920160200192915050565b5f815160c0845261132c60c08501826112ed565b90506020830151848203602086015261134582826112ed565b91505060018060a01b0360408401511660408501526060830151848203606086015261137182826112ed565b91505060808301511515608085015260a083015160a08501528091505092915050565b5f60208083016020845280855180835260408601915060408160051b8701019250602087015f5b828110156113e957603f198886030184526113d7858351611318565b945092850192908501906001016113bb565b5092979650505050505050565b5f60208284031215611406575f80fd5b5035919050565b602081525f61141f60208301846112ed565b9392505050565b634e487b7160e01b5f52604160045260245ffd5b5f82601f830112611449575f80fd5b813567ffffffffffffffff8082111561146457611464611426565b604051601f8301601f19908116603f0116810190828211818310171561148c5761148c611426565b816040528381528660208588010111156114a4575f80fd5b836020870160208301375f602085830101528094505050505092915050565b5f602082840312156114d3575f80fd5b813567ffffffffffffffff8111156114e9575f80fd5b6114f58482850161143a565b949350505050565b602081525f61141f6020830184611318565b5f60208083016020845280855180835260408601915060408160051b8701019250602087015f5b828110156113e957603f198886030184526115528583516112ed565b94509285019290850190600101611536565b60c081525f61157660c08301896112ed565b828103602084015261158881896112ed565b6001600160a01b0388166040850152838103606085015290506115ab81876112ed565b9415156080840152505060a00152949350505050565b80356001600160a01b03811681146115d7575f80fd5b919050565b5f805f80608085870312156115ef575f80fd5b843567ffffffffffffffff80821115611606575f80fd5b6116128883890161143a565b95506020870135915080821115611627575f80fd5b6116338883890161143a565b9450611641604088016115c1565b93506060870135915080821115611656575f80fd5b506116638782880161143a565b91505092959194509250565b5f8060408385031215611680575f80fd5b823567ffffffffffffffff811115611696575f80fd5b6116a28582860161143a565b925050602083013580151581146116b7575f80fd5b809150509250929050565b5f602082840312156116d2575f80fd5b61141f826115c1565b634e487b7160e01b5f52603260045260245ffd5b600181811c9082168061170357607f821691505b60208210810361172157634e487b7160e01b5f52602260045260245ffd5b50919050565b5f808354611734816116ef565b6001828116801561174c57600181146117615761178d565b60ff198416875282151583028701945061178d565b875f526020805f205f5b858110156117845781548a82015290840190820161176b565b50505082870194505b50929695505050505050565b5f600182016117b657634e487b7160e01b5f52601160045260245ffd5b5060010190565b5f82516117ce8184602087016112cb565b9190910192915050565b602080825260119082015270141c9bda9958dd081b9bdd08199bdd5b99607a1b604082015260600190565b6020808252600990820152682737ba1037bbb732b960b91b604082015260600190565b601f82111561186d57805f5260205f20601f840160051c8101602085101561184b5750805b601f840160051c820191505b8181101561186a575f8155600101611857565b50505b505050565b815167ffffffffffffffff81111561188c5761188c611426565b6118a08161189a84546116ef565b84611826565b602080601f8311600181146118d3575f84156118bc5750858301515b5f19600386901b1c1916600185901b17855561192a565b5f85815260208120601f198616915b82811015611901578886015182559484019460019091019084016118e2565b508582101561191e57878501515f19600388901b60f8161c191681555b505060018460011b0185555b505050505050565b606081525f61194460608301866112ed565b6001600160a01b0385166020840152828103604084015261196581856112ed565b969550505050505056fea26469706673582212201571328610acdb3c3b4332f6a521dac2347bd27151872069c12664c1fd8fc1ad64736f6c63430008180033",
        "nonce": "0x14",
        "chainId": "0xaa36a7"
      },
      "additionalContracts": [],
      "isFixedGasLimit": false
    },
    {
      "hash": "0x9bb96291f34489ba87756533a82bef9ce0be4ee1a44361f74e128b5450559930",
      "transactionType": "CALL",
      "contractName": "ProjectRegistry",
      "contractAddress": "0x5dc0110b057331018693ffcf96983fd02c91ad0e",
      "function": "addProject(string,string,address,string)",
      "arguments": [
        "eigen",
        "EigenLayer",
        "0x00000000000000000000000000000000000e1617",
        "Points"
      ],
      "transaction": {
        "from": "0x61fedd6bc4ef1ab11cf8b6cc8f9b4faeb41b6f55",
        "to": "0x5dc0110b057331018693ffcf96983fd02c91ad0e",
        "gas": "0x52fa2",
        "value": "0x0",
        "input": "0xfbf9efbf000000000000000000000000000000000000000000000000000000000000008000000000000000000000000000000000000000000000000000000000000000c000000000000000000000000000000000000000000000000000000000000e161700000000000000000000000000000000000000000000000000000000000001000000000000000000000000000000000000000000000000000000000000000005656967656e000000000000000000000000000000000000000000000000000000000000000000000000000000000000000000000000000000000000000000000a456967656e4c61796572000000000000000000000000000000000000000000000000000000000000000000000000000000000000000000000000000000000006506f696e74730000000000000000000000000000000000000000000000000000",
        "nonce": "0x15",
        "chainId": "0xaa36a7"
      },
      "additionalContracts": [],
      "isFixedGasLimit": false
    },
    {
      "hash": "0x2ca4d26d907f7608cdc36be5b5a958af12b3b0c01beb371de844d75ba0dae810",
      "transactionType": "CALL",
      "contractName": "ProjectRegistry",
      "contractAddress": "0x5dc0110b057331018693ffcf96983fd02c91ad0e",
      "function": "addProject(string,string,address,string)",
      "arguments": [
        "blast",
        "Blast",
        "0x0000000000000000000000000000000000B1a571",
        "Points"
      ],
      "transaction": {
        "from": "0x61fedd6bc4ef1ab11cf8b6cc8f9b4faeb41b6f55",
        "to": "0x5dc0110b057331018693ffcf96983fd02c91ad0e",
        "gas": "0x4cd9a",
        "value": "0x0",
        "input": "0xfbf9efbf000000000000000000000000000000000000000000000000000000000000008000000000000000000000000000000000000000000000000000000000000000c00000000000000000000000000000000000000000000000000000000000b1a57100000000000000000000000000000000000000000000000000000000000001000000000000000000000000000000000000000000000000000000000000000005626c6173740000000000000000000000000000000000000000000000000000000000000000000000000000000000000000000000000000000000000000000005426c6173740000000000000000000000000000000000000000000000000000000000000000000000000000000000000000000000000000000000000000000006506f696e74730000000000000000000000000000000000000000000000000000",
        "nonce": "0x16",
        "chainId": "0xaa36a7"
      },
      "additionalContracts": [],
      "isFixedGasLimit": false
    },
    {
      "hash": "0x78e7e4d17d682ac0af61cf78fd0ce2bd51466d400e7a458c5062c4771a75ec78",
      "transactionType": "CALL",
      "contractName": "ProjectRegistry",
      "contractAddress": "0x5dc0110b057331018693ffcf96983fd02c91ad0e",
      "function": "addProject(string,string,address,string)",
      "arguments": [
        "zksync",
        "zkSync",
        "0x00000000000000000000000000000000007C5970",
        "Tokens"
      ],
      "transaction": {
        "from": "0x61fedd6bc4ef1ab11cf8b6cc8f9b4faeb41b6f55",
        "to": "0x5dc0110b057331018693ffcf96983fd02c91ad0e",
        "gas": "0x48a17",
        "value": "0x0",
        "input": "0xfbf9efbf000000000000000000000000000000000000000000000000000000000000008000000000000000000000000000000000000000000000000000000000000000c000000000000000000000000000000000000000000000000000000000007c5970000000000000000000000000000000000000000000000000000000000000010000000000000000000000000000000000000000000000000000000000000000067a6b73796e63000000000000000000000000000000000000000000000000000000000000000000000000000000000000000000000000000000000000000000067a6b53796e6300000000000000000000000000000000000000000000000000000000000000000000000000000000000000000000000000000000000000000006546f6b656e730000000000000000000000000000000000000000000000000000",
        "nonce": "0x17",
        "chainId": "0xaa36a7"
      },
      "additionalContracts": [],
      "isFixedGasLimit": false
    },
    {
      "hash": "0x943947e04b0738917e035e035080f44826a506ca07014dc592c0fa619f236a3d",
      "transactionType": "CALL",
      "contractName": "ProjectRegistry",
      "contractAddress": "0x5dc0110b057331018693ffcf96983fd02c91ad0e",
      "function": "addProject(string,string,address,string)",
      "arguments": [
        "starknet",
        "Starknet",
        "0x000000000000000000000000000000005741974e",
        "Tokens"
      ],
      "transaction": {
        "from": "0x61fedd6bc4ef1ab11cf8b6cc8f9b4faeb41b6f55",
        "to": "0x5dc0110b057331018693ffcf96983fd02c91ad0e",
        "gas": "0x4cecb",
        "value": "0x0",
        "input": "0xfbf9efbf000000000000000000000000000000000000000000000000000000000000008000000000000000000000000000000000000000000000000000000000000000c0000000000000000000000000000000000000000000000000000000005741974e00000000000000000000000000000000000000000000000000000000000001000000000000000000000000000000000000000000000000000000000000000008737461726b6e65740000000000000000000000000000000000000000000000000000000000000000000000000000000000000000000000000000000000000008537461726b6e65740000000000000000000000000000000000000000000000000000000000000000000000000000000000000000000000000000000000000006546f6b656e730000000000000000000000000000000000000000000000000000",
        "nonce": "0x18",
        "chainId": "0xaa36a7"
      },
      "additionalContracts": [],
      "isFixedGasLimit": false
    },
    {
      "hash": "0x6d82832a2ef7a2f86ea4f426aeb6e85e773eca0a44795f6b87a19826d012b826",
      "transactionType": "CALL",
      "contractName": "ProjectRegistry",
      "contractAddress": "0x5dc0110b057331018693ffcf96983fd02c91ad0e",
      "function": "addProject(string,string,address,string)",
      "arguments": [
        "scroll",
        "Scroll",
        "0x0000000000000000000000000000000000507011",
        "Tokens"
      ],
      "transaction": {
        "from": "0x61fedd6bc4ef1ab11cf8b6cc8f9b4faeb41b6f55",
        "to": "0x5dc0110b057331018693ffcf96983fd02c91ad0e",
        "gas": "0x48a17",
        "value": "0x0",
        "input": "0xfbf9efbf000000000000000000000000000000000000000000000000000000000000008000000000000000000000000000000000000000000000000000000000000000c00000000000000000000000000000000000000000000000000000000000507011000000000000000000000000000000000000000000000000000000000000010000000000000000000000000000000000000000000000000000000000000000067363726f6c6c000000000000000000000000000000000000000000000000000000000000000000000000000000000000000000000000000000000000000000065363726f6c6c00000000000000000000000000000000000000000000000000000000000000000000000000000000000000000000000000000000000000000006546f6b656e730000000000000000000000000000000000000000000000000000",
        "nonce": "0x19",
        "chainId": "0xaa36a7"
      },
      "additionalContracts": [],
      "isFixedGasLimit": false
    },
    {
      "hash": "0x7966c063fce50855afe229844c8ccae3ffa5c0ce6a4c7f9c81c116c8bb1f9758",
      "transactionType": "CALL",
      "contractName": "ProjectRegistry",
      "contractAddress": "0x5dc0110b057331018693ffcf96983fd02c91ad0e",
      "function": "addProject(string,string,address,string)",
      "arguments": [
        "linea",
        "Linea",
        "0x00000000000000000000000000000000001174eA",
        "Points"
      ],
      "transaction": {
        "from": "0x61fedd6bc4ef1ab11cf8b6cc8f9b4faeb41b6f55",
        "to": "0x5dc0110b057331018693ffcf96983fd02c91ad0e",
        "gas": "0x4cd9a",
        "value": "0x0",
        "input": "0xfbf9efbf000000000000000000000000000000000000000000000000000000000000008000000000000000000000000000000000000000000000000000000000000000c000000000000000000000000000000000000000000000000000000000001174ea000000000000000000000000000000000000000000000000000000000000010000000000000000000000000000000000000000000000000000000000000000056c696e656100000000000000000000000000000000000000000000000000000000000000000000000000000000000000000000000000000000000000000000054c696e65610000000000000000000000000000000000000000000000000000000000000000000000000000000000000000000000000000000000000000000006506f696e74730000000000000000000000000000000000000000000000000000",
        "nonce": "0x1a",
        "chainId": "0xaa36a7"
      },
      "additionalContracts": [],
      "isFixedGasLimit": false
    }
  ],
  "receipts": [
    {
      "status": "0x1",
      "cumulativeGasUsed": "0xf0c2d3",
      "logs": [],
      "logsBloom": "0x00000000000000000000000000000000000000000000000000000000000000000000000000000000000000000000000000000000000000000000000000000000000000000000000000000000000000000000000000000000000000000000000000000000000000000000000000000000000000000000000000000000000000000000000000000000000000000000000000000000000000000000000000000000000000000000000000000000000000000000000000000000000000000000000000000000000000000000000000000000000000000000000000000000000000000000000000000000000000000000000000000000000000000000000000000000",
      "type": "0x2",
      "transactionHash": "0x082d3e5ccd65d7e09d392d2ba83c86357ca58792a57a1e7147ee1d9d6e25194f",
      "transactionIndex": "0x48",
      "blockHash": "0x3f3f3fc7a90db5f359dae1b9fe588fe3c9d12e5268c53ebad0a262ae4f3379b4",
      "blockNumber": "0x903e8b",
      "gasUsed": "0x7b7dc",
      "effectiveGasPrice": "0xf424a",
      "from": "0x61fedd6bc4ef1ab11cf8b6cc8f9b4faeb41b6f55",
      "to": null,
      "contractAddress": "0x76fbfc7ce378668db249850094156338ee546f83"
    },
    {
      "status": "0x1",
      "cumulativeGasUsed": "0xf1cd80",
      "logs": [
        {
          "address": "0x76fbfc7ce378668db249850094156338ee546f83",
          "topics": [
            "0xddf252ad1be2c89b69c2b068fc378daa952ba7f163c4a11628f55a4df523b3ef",
            "0x0000000000000000000000000000000000000000000000000000000000000000",
            "0x00000000000000000000000061fedd6bc4ef1ab11cf8b6cc8f9b4faeb41b6f55"
          ],
          "data": "0x000000000000000000000000000000000000000000000000000009184e72a000",
          "blockHash": "0x3f3f3fc7a90db5f359dae1b9fe588fe3c9d12e5268c53ebad0a262ae4f3379b4",
          "blockNumber": "0x903e8b",
          "blockTimestamp": "0x68f65bc0",
          "transactionHash": "0x4cb27e7e56a5e4e83e5700b60eae6fdf109ef968ea0a9951cab61b81de22eac2",
          "transactionIndex": "0x49",
          "logIndex": "0x7d",
          "removed": false
        }
      ],
      "logsBloom": "0x00000001000000000000000000000000000000000000000000000000000000000000000000000000000000000000000000000000000000000000000000000000000000000000000200000008000000000000000000000000000000000000000000000000020000000000000000000800000000000000000000000010000000000000000000000000000000000000000000000000000000000000000000000080000000000000000000000000200000000000000000000000000000000000000000000002000000000000000000400000008000000000000000000000000020000000000000000000000000000000000000000000000000000000000000000000",
      "type": "0x2",
      "transactionHash": "0x4cb27e7e56a5e4e83e5700b60eae6fdf109ef968ea0a9951cab61b81de22eac2",
      "transactionIndex": "0x49",
      "blockHash": "0x3f3f3fc7a90db5f359dae1b9fe588fe3c9d12e5268c53ebad0a262ae4f3379b4",
      "blockNumber": "0x903e8b",
      "gasUsed": "0x10aad",
      "effectiveGasPrice": "0xf424a",
      "from": "0x61fedd6bc4ef1ab11cf8b6cc8f9b4faeb41b6f55",
      "to": "0x76fbfc7ce378668db249850094156338ee546f83",
      "contractAddress": null
    },
    {
      "status": "0x1",
      "cumulativeGasUsed": "0x10bde4c",
      "logs": [
        {
          "address": "0x23dfa1e657686db18d6a598dbdf75797416fdb5a",
          "topics": [
            "0x8be0079c531659141344cd1fd0a4f28419497f9722a3daafe3b4186f6b6457e0",
            "0x0000000000000000000000000000000000000000000000000000000000000000",
            "0x00000000000000000000000061fedd6bc4ef1ab11cf8b6cc8f9b4faeb41b6f55"
          ],
          "data": "0x",
          "blockHash": "0x3f3f3fc7a90db5f359dae1b9fe588fe3c9d12e5268c53ebad0a262ae4f3379b4",
          "blockNumber": "0x903e8b",
          "blockTimestamp": "0x68f65bc0",
          "transactionHash": "0xe393436fc3ebd9adc9d67d3eaea8105fe8dd9d0f7bda5262bc8a5dfee29c3844",
          "transactionIndex": "0x4a",
          "logIndex": "0x7e",
          "removed": false
        }
      ],
      "logsBloom": "0x00000000000000000000000000000000000000000000000000800000000000000000000000000000000000000000000000000000000000000000000000000000000000000000000200000000000000000001000000000000000000000000000000000400020000000000000000000800000000000000000000000000000000400000000000000000000000000000000000100000000000000000000000000080000000000000000000000000000008000000000000000000000000000000000000000000000000000000000000400000000000000000000000000000000020000000000000000000000000000000000000000000000000000000000000000000",
      "type": "0x2",
      "transactionHash": "0xe393436fc3ebd9adc9d67d3eaea8105fe8dd9d0f7bda5262bc8a5dfee29c3844",
      "transactionIndex": "0x4a",
      "blockHash": "0x3f3f3fc7a90db5f359dae1b9fe588fe3c9d12e5268c53ebad0a262ae4f3379b4",
      "blockNumber": "0x903e8b",
      "gasUsed": "0x1a10cc",
      "effectiveGasPrice": "0xf424a",
      "from": "0x61fedd6bc4ef1ab11cf8b6cc8f9b4faeb41b6f55",
      "to": null,
      "contractAddress": "0x23dfa1e657686db18d6a598dbdf75797416fdb5a"
    },
    {
      "status": "0x1",
      "cumulativeGasUsed": "0x122af50",
      "logs": [],
      "logsBloom": "0x00000000000000000000000000000000000000000000000000000000000000000000000000000000000000000000000000000000000000000000000000000000000000000000000000000000000000000000000000000000000000000000000000000000000000000000000000000000000000000000000000000000000000000000000000000000000000000000000000000000000000000000000000000000000000000000000000000000000000000000000000000000000000000000000000000000000000000000000000000000000000000000000000000000000000000000000000000000000000000000000000000000000000000000000000000000",
      "type": "0x2",
      "transactionHash": "0x29e2b407f6a38a80d418c97ab6910dfa6a4d8eaca7baa4f942e76a7689efa5fa",
      "transactionIndex": "0x4b",
      "blockHash": "0x3f3f3fc7a90db5f359dae1b9fe588fe3c9d12e5268c53ebad0a262ae4f3379b4",
      "blockNumber": "0x903e8b",
      "gasUsed": "0x16d104",
      "effectiveGasPrice": "0xf424a",
      "from": "0x61fedd6bc4ef1ab11cf8b6cc8f9b4faeb41b6f55",
      "to": null,
      "contractAddress": "0x5dc0110b057331018693ffcf96983fd02c91ad0e"
    },
    {
      "status": "0x1",
      "cumulativeGasUsed": "0x1263b19",
      "logs": [
        {
          "address": "0x5dc0110b057331018693ffcf96983fd02c91ad0e",
          "topics": [
            "0x9803a193045661ff203152952689c5f5228d2b5945423b84f7bd5f17d58ec971",
            "0x9855398485cd8fe3482128d5d7b504415da8715af977b4beb09dd1343a8cc044"
          ],
          "data": "0x000000000000000000000000000000000000000000000000000000000000006000000000000000000000000000000000000000000000000000000000000e161700000000000000000000000000000000000000000000000000000000000000a0000000000000000000000000000000000000000000000000000000000000000a456967656e4c61796572000000000000000000000000000000000000000000000000000000000000000000000000000000000000000000000000000000000006506f696e74730000000000000000000000000000000000000000000000000000",
          "blockHash": "0x3f3f3fc7a90db5f359dae1b9fe588fe3c9d12e5268c53ebad0a262ae4f3379b4",
          "blockNumber": "0x903e8b",
          "blockTimestamp": "0x68f65bc0",
          "transactionHash": "0x9bb96291f34489ba87756533a82bef9ce0be4ee1a44361f74e128b5450559930",
          "transactionIndex": "0x4c",
          "logIndex": "0x7f",
          "removed": false
        }
      ],
      "logsBloom": "0x00000000000000000000000000000000000000000000000000000000000000000000000000000001000000000000000000000000000000000000000000000000000400000000000000000000000040000000000000000000000000000000000000000000000000000000000000000000000000000000000000000000000000000000000000000000000000000000000000000000000000000000000000000001000000000000000000000000000000200000000000000000004000000000000100000000000000000000000000000000000000000000000000000000000000000000000000000000000000020000000000000000000001000000000000000000",
      "type": "0x2",
      "transactionHash": "0x9bb96291f34489ba87756533a82bef9ce0be4ee1a44361f74e128b5450559930",
      "transactionIndex": "0x4c",
      "blockHash": "0x3f3f3fc7a90db5f359dae1b9fe588fe3c9d12e5268c53ebad0a262ae4f3379b4",
      "blockNumber": "0x903e8b",
      "gasUsed": "0x38bc9",
      "effectiveGasPrice": "0xf424a",
      "from": "0x61fedd6bc4ef1ab11cf8b6cc8f9b4faeb41b6f55",
      "to": "0x5dc0110b057331018693ffcf96983fd02c91ad0e",
      "contractAddress": null
    },
    {
      "status": "0x1",
      "cumulativeGasUsed": "0x12983da",
      "logs": [
        {
          "address": "0x5dc0110b057331018693ffcf96983fd02c91ad0e",
          "topics": [
            "0x9803a193045661ff203152952689c5f5228d2b5945423b84f7bd5f17d58ec971",
            "0xedf839a6b71363a2663cc0c8ffcf15606693adcc9ca9c568aeb87895fd70b0ec"
          ],
          "data": "0x00000000000000000000000000000000000000000000000000000000000000600000000000000000000000000000000000000000000000000000000000b1a57100000000000000000000000000000000000000000000000000000000000000a00000000000000000000000000000000000000000000000000000000000000005426c6173740000000000000000000000000000000000000000000000000000000000000000000000000000000000000000000000000000000000000000000006506f696e74730000000000000000000000000000000000000000000000000000",
          "blockHash": "0x3f3f3fc7a90db5f359dae1b9fe588fe3c9d12e5268c53ebad0a262ae4f3379b4",
          "blockNumber": "0x903e8b",
          "blockTimestamp": "0x68f65bc0",
          "transactionHash": "0x2ca4d26d907f7608cdc36be5b5a958af12b3b0c01beb371de844d75ba0dae810",
          "transactionIndex": "0x4d",
          "logIndex": "0x80",
          "removed": false
        }
      ],
      "logsBloom": "0x00000000000000000000000000000000000000000000000000000000000000000000000000000001000000000000000000000000000000000000000000000000000000000000000000000000000040000000000000000000000000000000000000000000000000000000000000000000000000000000000000000000000000000000000000000000000000000000000000000000000000000008000000000001000000000000400000000000000000000000000000000000004000000000000000000000000000000000000000000000000000000000000000000000000000000000000800000000000000020000000000000000000001000000000000000000",
      "type": "0x2",
      "transactionHash": "0x2ca4d26d907f7608cdc36be5b5a958af12b3b0c01beb371de844d75ba0dae810",
      "transactionIndex": "0x4d",
      "blockHash": "0x3f3f3fc7a90db5f359dae1b9fe588fe3c9d12e5268c53ebad0a262ae4f3379b4",
      "blockNumber": "0x903e8b",
      "gasUsed": "0x348c1",
      "effectiveGasPrice": "0xf424a",
      "from": "0x61fedd6bc4ef1ab11cf8b6cc8f9b4faeb41b6f55",
      "to": "0x5dc0110b057331018693ffcf96983fd02c91ad0e",
      "contractAddress": null
    },
    {
      "status": "0x1",
      "cumulativeGasUsed": "0x12ccd30",
      "logs": [
        {
          "address": "0x5dc0110b057331018693ffcf96983fd02c91ad0e",
          "topics": [
            "0x9803a193045661ff203152952689c5f5228d2b5945423b84f7bd5f17d58ec971",
            "0x0238fb1ab06c28c32885f9a4842207ac480c2467df26b6c58e201679628c5a5b"
          ],
          "data": "0x000000000000000000000000000000000000000000000000000000000000006000000000000000000000000000000000000000000000000000000000007c597000000000000000000000000000000000000000000000000000000000000000a000000000000000000000000000000000000000000000000000000000000000067a6b53796e6300000000000000000000000000000000000000000000000000000000000000000000000000000000000000000000000000000000000000000006546f6b656e730000000000000000000000000000000000000000000000000000",
          "blockHash": "0x3f3f3fc7a90db5f359dae1b9fe588fe3c9d12e5268c53ebad0a262ae4f3379b4",
          "blockNumber": "0x903e8b",
          "blockTimestamp": "0x68f65bc0",
          "transactionHash": "0x78e7e4d17d682ac0af61cf78fd0ce2bd51466d400e7a458c5062c4771a75ec78",
          "transactionIndex": "0x4e",
          "logIndex": "0x81",
          "removed": false
        }
      ],
      "logsBloom": "0x00000000000000000000000000000000000000000000000000000000000000000000000000000001000000000000000000000000000000000000000000000000000000000000000000000080000040000000000000000000000000000000000000000000000000000000000100000000000000000000000000000000000000000000000000000000000000000000000000000000000000000000000000000001000000000000000000000000000000000000000000000000004000000000000000000000000000000000000000000000000000000000000000000080000000000000000000000000000000020000000000000000000001000000000000000000",
      "type": "0x2",
      "transactionHash": "0x78e7e4d17d682ac0af61cf78fd0ce2bd51466d400e7a458c5062c4771a75ec78",
      "transactionIndex": "0x4e",
      "blockHash": "0x3f3f3fc7a90db5f359dae1b9fe588fe3c9d12e5268c53ebad0a262ae4f3379b4",
      "blockNumber": "0x903e8b",
      "gasUsed": "0x34956",
      "effectiveGasPrice": "0xf424a",
      "from": "0x61fedd6bc4ef1ab11cf8b6cc8f9b4faeb41b6f55",
      "to": "0x5dc0110b057331018693ffcf96983fd02c91ad0e",
      "contractAddress": null
    },
    {
      "status": "0x1",
      "cumulativeGasUsed": "0x13016c2",
      "logs": [
        {
          "address": "0x5dc0110b057331018693ffcf96983fd02c91ad0e",
          "topics": [
            "0x9803a193045661ff203152952689c5f5228d2b5945423b84f7bd5f17d58ec971",
            "0x9d4909ac0d4a034239ea4f7265fac97d189ff7430fec65bce3879ab4b5a8d058"
          ],
          "data": "0x0000000000000000000000000000000000000000000000000000000000000060000000000000000000000000000000000000000000000000000000005741974e00000000000000000000000000000000000000000000000000000000000000a00000000000000000000000000000000000000000000000000000000000000008537461726b6e65740000000000000000000000000000000000000000000000000000000000000000000000000000000000000000000000000000000000000006546f6b656e730000000000000000000000000000000000000000000000000000",
          "blockHash": "0x3f3f3fc7a90db5f359dae1b9fe588fe3c9d12e5268c53ebad0a262ae4f3379b4",
          "blockNumber": "0x903e8b",
          "blockTimestamp": "0x68f65bc0",
          "transactionHash": "0x943947e04b0738917e035e035080f44826a506ca07014dc592c0fa619f236a3d",
          "transactionIndex": "0x4f",
          "logIndex": "0x82",
          "removed": false
        }
      ],
      "logsBloom": "0x00000000000000000000000000000000000000000000000000000000000000000000000000000001000000000000000000000000000000000000000000000000000000000000000000000000000040000000000000000000000000000000000000000000000000000000000000000000000000004000000000000000000000000000000000000100000000000000000000000000000000000000000000000001000000000000000000000000000000000000000000000000004000000000000000000000000000000000000000000000000000000000000000000000000004000000000000000000000000020000000000000000000001000000000000000000",
      "type": "0x2",
      "transactionHash": "0x943947e04b0738917e035e035080f44826a506ca07014dc592c0fa619f236a3d",
      "transactionIndex": "0x4f",
      "blockHash": "0x3f3f3fc7a90db5f359dae1b9fe588fe3c9d12e5268c53ebad0a262ae4f3379b4",
      "blockNumber": "0x903e8b",
      "gasUsed": "0x34992",
      "effectiveGasPrice": "0xf424a",
      "from": "0x61fedd6bc4ef1ab11cf8b6cc8f9b4faeb41b6f55",
      "to": "0x5dc0110b057331018693ffcf96983fd02c91ad0e",
      "contractAddress": null
    },
    {
      "status": "0x1",
      "cumulativeGasUsed": "0x1336018",
      "logs": [
        {
          "address": "0x5dc0110b057331018693ffcf96983fd02c91ad0e",
          "topics": [
            "0x9803a193045661ff203152952689c5f5228d2b5945423b84f7bd5f17d58ec971",
            "0x2aaed383945be8e51bafb6f7e973dfe9a60caff149437306576d46ab05ec4623"
          ],
          "data": "0x0000000000000000000000000000000000000000000000000000000000000060000000000000000000000000000000000000000000000000000000000050701100000000000000000000000000000000000000000000000000000000000000a000000000000000000000000000000000000000000000000000000000000000065363726f6c6c00000000000000000000000000000000000000000000000000000000000000000000000000000000000000000000000000000000000000000006546f6b656e730000000000000000000000000000000000000000000000000000",
          "blockHash": "0x3f3f3fc7a90db5f359dae1b9fe588fe3c9d12e5268c53ebad0a262ae4f3379b4",
          "blockNumber": "0x903e8b",
          "blockTimestamp": "0x68f65bc0",
          "transactionHash": "0x6d82832a2ef7a2f86ea4f426aeb6e85e773eca0a44795f6b87a19826d012b826",
          "transactionIndex": "0x50",
          "logIndex": "0x83",
          "removed": false
        }
      ],
      "logsBloom": "0x00000000000000000000000000000000000000000000000000000000000000000000000000000001000000000000000000000000000000000000000000000000000000000000000000000000000040000000000000000000000000000000000000000000000000000000000000000000000000000000000000000000000000000000000000000000000000000000000100000000000000000000000000000001000000000000000000000000000000000000000000000000004000000000000000000000000000000000000000000000000400000000000000000000000000000000000000000400000000020000000000000000000001000000000000000000",
      "type": "0x2",
      "transactionHash": "0x6d82832a2ef7a2f86ea4f426aeb6e85e773eca0a44795f6b87a19826d012b826",
      "transactionIndex": "0x50",
      "blockHash": "0x3f3f3fc7a90db5f359dae1b9fe588fe3c9d12e5268c53ebad0a262ae4f3379b4",
      "blockNumber": "0x903e8b",
      "gasUsed": "0x34956",
      "effectiveGasPrice": "0xf424a",
      "from": "0x61fedd6bc4ef1ab11cf8b6cc8f9b4faeb41b6f55",
      "to": "0x5dc0110b057331018693ffcf96983fd02c91ad0e",
      "contractAddress": null
    },
    {
      "status": "0x1",
      "cumulativeGasUsed": "0x136a8d9",
      "logs": [
        {
          "address": "0x5dc0110b057331018693ffcf96983fd02c91ad0e",
          "topics": [
            "0x9803a193045661ff203152952689c5f5228d2b5945423b84f7bd5f17d58ec971",
            "0x2e3dd66a6ec9a366e8b293f3a590467f043a76d049562752176edb48a3062d11"
          ],
          "data": "0x000000000000000000000000000000000000000000000000000000000000006000000000000000000000000000000000000000000000000000000000001174ea00000000000000000000000000000000000000000000000000000000000000a000000000000000000000000000000000000000000000000000000000000000054c696e65610000000000000000000000000000000000000000000000000000000000000000000000000000000000000000000000000000000000000000000006506f696e74730000000000000000000000000000000000000000000000000000",
          "blockHash": "0x3f3f3fc7a90db5f359dae1b9fe588fe3c9d12e5268c53ebad0a262ae4f3379b4",
          "blockNumber": "0x903e8b",
          "blockTimestamp": "0x68f65bc0",
          "transactionHash": "0x7966c063fce50855afe229844c8ccae3ffa5c0ce6a4c7f9c81c116c8bb1f9758",
          "transactionIndex": "0x51",
          "logIndex": "0x84",
          "removed": false
        }
      ],
      "logsBloom": "0x00000000000000000000000000000000000000000000000000000000000000000000000000000001000000000000000000000000000000002000000000000000000000000000000000000000000040000000000000000000004000000000000000000000000000000000000000000000000000000000000000000000000100000000000000000000000000000000000000000000000000000000000000000001000000000000000000000000000000000000000000000000004000000000000000000000000000000000000000000000000000000000000000000000000000000000000000000000000000020000000000000000000001000000000000000000",
      "type": "0x2",
      "transactionHash": "0x7966c063fce50855afe229844c8ccae3ffa5c0ce6a4c7f9c81c116c8bb1f9758",
      "transactionIndex": "0x51",
      "blockHash": "0x3f3f3fc7a90db5f359dae1b9fe588fe3c9d12e5268c53ebad0a262ae4f3379b4",
      "blockNumber": "0x903e8b",
      "gasUsed": "0x348c1",
      "effectiveGasPrice": "0xf424a",
      "from": "0x61fedd6bc4ef1ab11cf8b6cc8f9b4faeb41b6f55",
      "to": "0x5dc0110b057331018693ffcf96983fd02c91ad0e",
      "contractAddress": null
    }
  ],
  "libraries": [],
  "pending": [],
  "returns": {},
  "timestamp": 1760975857127,
  "chain": 11155111,
  "commit": null
}