{
  "transactions": [
    {
      "hash": "0x24ad055b3615ce54552b56c26e982a95a9e662cca30fd2c7fde973176c9a8e77",
      "transactionType": "CALL",
      "contractName": null,
      "contractAddress": "0xc5e41d8dcd6de1c35b4a82580b29562bb13dd0d2",
      "function": "addProject(string,string,address,bool,string)",
      "arguments": [
        "lighter",
        "Lighter",
        "0x0000000000000000000000000000000000000000",
        "true",
        "ipfs://QmLighterMetadata"
      ],
      "transaction": {
        "from": "0x61fedd6bc4ef1ab11cf8b6cc8f9b4faeb41b6f55",
        "to": "0xc5e41d8dcd6de1c35b4a82580b29562bb13dd0d2",
        "gas": "0x52a6e",
        "value": "0x0",
        "input": "0x29ba4e8700000000000000000000000000000000000000000000000000000000000000a000000000000000000000000000000000000000000000000000000000000000e000000000000000000000000000000000000000000000000000000000000000000000000000000000000000000000000000000000000000000000000000000001000000000000000000000000000000000000000000000000000000000000012000000000000000000000000000000000000000000000000000000000000000076c6967687465720000000000000000000000000000000000000000000000000000000000000000000000000000000000000000000000000000000000000000074c696768746572000000000000000000000000000000000000000000000000000000000000000000000000000000000000000000000000000000000000000018697066733a2f2f516d4c6967687465724d657461646174610000000000000000",
        "nonce": "0x1d9",
        "chainId": "0xaa36a7"
      },
      "additionalContracts": [],
      "isFixedGasLimit": false
    },
    {
      "hash": "0x3a7553872fb4bd8ea8a8e5536bf798deb1c6eac6f11460e3ed9c925937d28a51",
      "transactionType": "CALL",
      "contractName": null,
      "contractAddress": "0xc5e41d8dcd6de1c35b4a82580b29562bb13dd0d2",
      "function": "addProject(string,string,address,bool,string)",
      "arguments": [
        "megaeth",
        "MegaETH",
        "0x0000000000000000000000000000000000000000",
        "false",
        "ipfs://QmMegaETHMetadata"
      ],
      "transaction": {
        "from": "0x61fedd6bc4ef1ab11cf8b6cc8f9b4faeb41b6f55",
        "to": "0xc5e41d8dcd6de1c35b4a82580b29562bb13dd0d2",
        "gas": "0x466ea",
        "value": "0x0",
        "input": "0x29ba4e8700000000000000000000000000000000000000000000000000000000000000a000000000000000000000000000000000000000000000000000000000000000e000000000000000000000000000000000000000000000000000000000000000000000000000000000000000000000000000000000000000000000000000000000000000000000000000000000000000000000000000000000000000000000012000000000000000000000000000000000000000000000000000000000000000076d6567616574680000000000000000000000000000000000000000000000000000000000000000000000000000000000000000000000000000000000000000074d656761455448000000000000000000000000000000000000000000000000000000000000000000000000000000000000000000000000000000000000000018697066733a2f2f516d4d6567614554484d657461646174610000000000000000",
        "nonce": "0x1da",
        "chainId": "0xaa36a7"
      },
      "additionalContracts": [],
      "isFixedGasLimit": false
    }
  ],
  "receipts": [
    {
      "status": "0x1",
      "cumulativeGasUsed": "0xcd4d19",
      "logs": [
        {
          "address": "0xc5e41d8dcd6de1c35b4a82580b29562bb13dd0d2",
          "topics": [
            "0xbdbc6d2da446cba955f9a07ead42dc8c26f325cbd2128b3df48dc14bda52954e",
            "0x36b8d00546836d48aa1310924b601123c82b847124cdb1f8741ff857bc56161a"
          ],
          "data": "0x0000000000000000000000000000000000000000000000000000000000000040000000000000000000000000000000000000000000000000000000000000008000000000000000000000000000000000000000000000000000000000000000074c696768746572000000000000000000000000000000000000000000000000000000000000000000000000000000000000000000000000000000000000000018697066733a2f2f516d4c6967687465724d657461646174610000000000000000",
          "blockHash": "0x34929dc4a8c6fa0d50e50a17371ed63b4d9cdb17886af6007b272192fdbf88bd",
          "blockNumber": "0x91330f",
          "blockTimestamp": "0x69020e5c",
          "transactionHash": "0x24ad055b3615ce54552b56c26e982a95a9e662cca30fd2c7fde973176c9a8e77",
          "transactionIndex": "0x12e",
          "logIndex": "0x83",
          "removed": false
        }
      ],
      "logsBloom": "0x00000000000000000000000000000000000000000000000000040000000000000000010002000000000000000000000000000000000000000000000000000000000000000000000000000000000000000000000000000000000000000000000000000400000000000000000000000000000000000000000000000000000401000000000000000000000000000000000000000000000000008000000000000000000000000000000000000000000000000000000000000000000000000000000000000000200000000000000000000000000000000000000000000000000000000000000000000000000000000100000000000000000000000000000000000000",
      "type": "0x0",
      "transactionHash": "0x24ad055b3615ce54552b56c26e982a95a9e662cca30fd2c7fde973176c9a8e77",
      "transactionIndex": "0x12e",
      "blockHash": "0x34929dc4a8c6fa0d50e50a17371ed63b4d9cdb17886af6007b272192fdbf88bd",
      "blockNumber": "0x91330f",
      "gasUsed": "0x3883a",
      "effectiveGasPrice": "0xf4240",
      "from": "0x61fedd6bc4ef1ab11cf8b6cc8f9b4faeb41b6f55",
      "to": "0xc5e41d8dcd6de1c35b4a82580b29562bb13dd0d2",
      "contractAddress": null
    },
    {
      "status": "0x1",
      "cumulativeGasUsed": "0xd04fa4",
      "logs": [
        {
          "address": "0xc5e41d8dcd6de1c35b4a82580b29562bb13dd0d2",
          "topics": [
            "0xbdbc6d2da446cba955f9a07ead42dc8c26f325cbd2128b3df48dc14bda52954e",
            "0x69ca57889555533c2482d9ddd973440a5e9222396f854859e4e3fd66d5ccf0fc"
          ],
          "data": "0x0000000000000000000000000000000000000000000000000000000000000040000000000000000000000000000000000000000000000000000000000000008000000000000000000000000000000000000000000000000000000000000000074d656761455448000000000000000000000000000000000000000000000000000000000000000000000000000000000000000000000000000000000000000018697066733a2f2f516d4d6567614554484d657461646174610000000000000000",
          "blockHash": "0x34929dc4a8c6fa0d50e50a17371ed63b4d9cdb17886af6007b272192fdbf88bd",
          "blockNumber": "0x91330f",
          "blockTimestamp": "0x69020e5c",
          "transactionHash": "0x3a7553872fb4bd8ea8a8e5536bf798deb1c6eac6f11460e3ed9c925937d28a51",
          "transactionIndex": "0x12f",
          "logIndex": "0x84",
          "removed": false
        }
      ],
      "logsBloom": "0x00000000000000000000000000000000000000000000000010000000000000000000000002000000000000000000000000000000000000000000000000000000000000000000000000000000000000000000000000000000000000000000000000000400000000000000000000000000000000000000000000000000000401000000000000000000000000000000000000000000000000008000010000000000000000000000000000000000000000000000000000000000000000000000000000000000000000000000000000000000000000000000000000000000000000000000000000000000000000000100000040000000000000000000000000000000",
      "type": "0x0",
      "transactionHash": "0x3a7553872fb4bd8ea8a8e5536bf798deb1c6eac6f11460e3ed9c925937d28a51",
      "transactionIndex": "0x12f",
      "blockHash": "0x34929dc4a8c6fa0d50e50a17371ed63b4d9cdb17886af6007b272192fdbf88bd",
      "blockNumber": "0x91330f",
      "gasUsed": "0x3028b",
      "effectiveGasPrice": "0xf4240",
      "from": "0x61fedd6bc4ef1ab11cf8b6cc8f9b4faeb41b6f55",
      "to": "0xc5e41d8dcd6de1c35b4a82580b29562bb13dd0d2",
      "contractAddress": null
    }
  ],
  "libraries": [],
  "pending": [],
  "returns": {},
  "timestamp": 1761742430616,
  "chain": 11155111,
  "commit": "712afbf"
}