{
  "transactions": [
    {
      "hash": "0x05d04b753d0c548b3979a3f2a5ff4d3f8a8a5075eb9cf5f09418eafcf2efe809",
      "transactionType": "CALL",
      "contractName": null,
      "contractAddress": "0x39f40e44a8a7e7c1730ccfe67ff7dccaddfbc0db",
      "function": "addProject(string,string,address,bool,string)",
      "arguments": [
        "lighter",
        "Lighter",
        "0x0000000000000000000000000000000000000000",
        "true",
        "ipfs://QmLighterMetadata"
      ],
      "transaction": {
        "from": "0x61fedd6bc4ef1ab11cf8b6cc8f9b4faeb41b6f55",
        "to": "0x39f40e44a8a7e7c1730ccfe67ff7dccaddfbc0db",
        "gas": "0x4e114",
        "value": "0x0",
        "input": "0x29ba4e8700000000000000000000000000000000000000000000000000000000000000a000000000000000000000000000000000000000000000000000000000000000e000000000000000000000000000000000000000000000000000000000000000000000000000000000000000000000000000000000000000000000000000000001000000000000000000000000000000000000000000000000000000000000012000000000000000000000000000000000000000000000000000000000000000076c6967687465720000000000000000000000000000000000000000000000000000000000000000000000000000000000000000000000000000000000000000074c696768746572000000000000000000000000000000000000000000000000000000000000000000000000000000000000000000000000000000000000000018697066733a2f2f516d4c6967687465724d657461646174610000000000000000",
        "nonce": "0x1d0",
        "chainId": "0xaa36a7"
      },
      "additionalContracts": [],
      "isFixedGasLimit": false
    },
    {
      "hash": "0xcb6010e925cc4766883bf9fa7a418e7c5e0b8a9dd638634792d8159a6aaa5da1",
      "transactionType": "CALL",
      "contractName": null,
      "contractAddress": "0x39f40e44a8a7e7c1730ccfe67ff7dccaddfbc0db",
      "function": "addProject(string,string,address,bool,string)",
      "arguments": [
        "megaeth",
        "MegaETH",
        "0x0000000000000000000000000000000000000000",
        "false",
        "ipfs://QmMegaETHMetadata"
      ],
      "transaction": {
        "from": "0x61fedd6bc4ef1ab11cf8b6cc8f9b4faeb41b6f55",
        "to": "0x39f40e44a8a7e7c1730ccfe67ff7dccaddfbc0db",
        "gas": "0x4670b",
        "value": "0x0",
        "input": "0x29ba4e8700000000000000000000000000000000000000000000000000000000000000a000000000000000000000000000000000000000000000000000000000000000e000000000000000000000000000000000000000000000000000000000000000000000000000000000000000000000000000000000000000000000000000000000000000000000000000000000000000000000000000000000000000000000012000000000000000000000000000000000000000000000000000000000000000076d6567616574680000000000000000000000000000000000000000000000000000000000000000000000000000000000000000000000000000000000000000074d656761455448000000000000000000000000000000000000000000000000000000000000000000000000000000000000000000000000000000000000000018697066733a2f2f516d4d6567614554484d657461646174610000000000000000",
        "nonce": "0x1d1",
        "chainId": "0xaa36a7"
      },
      "additionalContracts": [],
      "isFixedGasLimit": false
    }
  ],
  "receipts": [
    {
      "status": "0x1",
      "cumulativeGasUsed": "0xb066cb",
      "logs": [
        {
          "address": "0x39f40e44a8a7e7c1730ccfe67ff7dccaddfbc0db",
          "topics": [
            "0xbdbc6d2da446cba955f9a07ead42dc8c26f325cbd2128b3df48dc14bda52954e",
            "0x36b8d00546836d48aa1310924b601123c82b847124cdb1f8741ff857bc56161a"
          ],
          "data": "0x0000000000000000000000000000000000000000000000000000000000000040000000000000000000000000000000000000000000000000000000000000008000000000000000000000000000000000000000000000000000000000000000074c696768746572000000000000000000000000000000000000000000000000000000000000000000000000000000000000000000000000000000000000000018697066733a2f2f516d4c6967687465724d657461646174610000000000000000",
          "blockHash": "0x0bdf8adb2538e111bc0c2400996c860fa580920bb3d3b7c0e7a4210dec66182c",
          "blockNumber": "0x9132cb",
          "blockTimestamp": "0x69020b2c",
          "transactionHash": "0x05d04b753d0c548b3979a3f2a5ff4d3f8a8a5075eb9cf5f09418eafcf2efe809",
          "transactionIndex": "0x47",
          "logIndex": "0x66",
          "removed": false
        }
      ],
      "logsBloom": "0x00000000000000000000000000000000000000000000000000040000000000000000010002000000000000000000000000000000000000000000000000000000000000000000000000000000000000000000000000000000000000000000000000000000000000000000000000000000000000000000000000000000000401000000000000000000000000000000000000000000000000000000000000000000000000000000000000000000000000000000000010000000000000000000000000000000200000000000000000000000000000000000000000000000000000000000000200000000000000000000000000000000000000000000000000002000",
      "type": "0x0",
      "transactionHash": "0x05d04b753d0c548b3979a3f2a5ff4d3f8a8a5075eb9cf5f09418eafcf2efe809",
      "transactionIndex": "0x47",
      "blockHash": "0x0bdf8adb2538e111bc0c2400996c860fa580920bb3d3b7c0e7a4210dec66182c",
      "blockNumber": "0x9132cb",
      "gasUsed": "0x38850",
      "effectiveGasPrice": "0xf4240",
      "from": "0x61fedd6bc4ef1ab11cf8b6cc8f9b4faeb41b6f55",
      "to": "0x39f40e44a8a7e7c1730ccfe67ff7dccaddfbc0db",
      "contractAddress": null
    },
    {
      "status": "0x1",
      "cumulativeGasUsed": "0xcc2272",
      "logs": [
        {
          "address": "0x39f40e44a8a7e7c1730ccfe67ff7dccaddfbc0db",
          "topics": [
            "0xbdbc6d2da446cba955f9a07ead42dc8c26f325cbd2128b3df48dc14bda52954e",
            "0x69ca57889555533c2482d9ddd973440a5e9222396f854859e4e3fd66d5ccf0fc"
          ],
          "data": "0x0000000000000000000000000000000000000000000000000000000000000040000000000000000000000000000000000000000000000000000000000000008000000000000000000000000000000000000000000000000000000000000000074d656761455448000000000000000000000000000000000000000000000000000000000000000000000000000000000000000000000000000000000000000018697066733a2f2f516d4d6567614554484d657461646174610000000000000000",
          "blockHash": "0x0bdf8adb2538e111bc0c2400996c860fa580920bb3d3b7c0e7a4210dec66182c",
          "blockNumber": "0x9132cb",
          "blockTimestamp": "0x69020b2c",
          "transactionHash": "0xcb6010e925cc4766883bf9fa7a418e7c5e0b8a9dd638634792d8159a6aaa5da1",
          "transactionIndex": "0x50",
          "logIndex": "0x6e",
          "removed": false
        }
      ],
      "logsBloom": "0x00000000000000000000000000000000000000000000000010000000000000000000000002000000000000000000000000000000000000000000000000000000000000000000000000000000000000000000000000000000000000000000000000000000000000000000000000000000000000000000000000000000000401000000000000000000000000000000000000000000000000000000010000000000000000000000000000000000000000000000000010000000000000000000000000000000000000000000000000000000000000000000000000000000000000000000000200000000000000000000000040000000000000000000000000002000",
      "type": "0x0",
      "transactionHash": "0xcb6010e925cc4766883bf9fa7a418e7c5e0b8a9dd638634792d8159a6aaa5da1",
      "transactionIndex": "0x50",
      "blockHash": "0x0bdf8adb2538e111bc0c2400996c860fa580920bb3d3b7c0e7a4210dec66182c",
      "blockNumber": "0x9132cb",
      "gasUsed": "0x302a1",
      "effectiveGasPrice": "0xf4240",
      "from": "0x61fedd6bc4ef1ab11cf8b6cc8f9b4faeb41b6f55",
      "to": "0x39f40e44a8a7e7c1730ccfe67ff7dccaddfbc0db",
      "contractAddress": null
    }
  ],
  "libraries": [],
  "pending": [],
  "returns": {},
  "timestamp": 1761741614192,
  "chain": 11155111,
  "commit": "712afbf"
}