{
  "transactions": [
    {
      "hash": "0x125c415190edcd1c727b100197678dcc5c487a0c80b4335d40f1c6876f261d3c",
      "transactionType": "CREATE",
      "contractName": "ProjectRegistry",
      "contractAddress": "0x93b9e84e36d649d222d695282c87a160e4295c85",
      "function": null,
      "arguments": null,
      "transaction": {
        "from": "0x61fedd6bc4ef1ab11cf8b6cc8f9b4faeb41b6f55",
        "gas": "0x250636",
        "value": "0x0",
        "input": "0x608060405234801561000f575f80fd5b50600380546001600160a01b0319163317905561205a8061002f5f395ff3fe608060405234801561000f575f80fd5b50600436106100b1575f3560e01c80638da5cb5b1161006e5780638da5cb5b1461014e57806391c9b268146101795780639ebc0b1b146101a1578063b40ba05c146101b4578063e7e4a858146101f2578063f2fde38b14610205575f80fd5b806329cfce41146100b55780633bcff3b0146100d35780634187aa98146100e45780634fa691e2146101045780635f5f2c0c146101245780637dd67f9314610139575b5f80fd5b6100bd610218565b6040516100ca91906119a2565b60405180910390f35b6001546040519081526020016100ca565b6100f76100f2366004611a04565b61073c565b6040516100ca9190611a1b565b610117610112366004611ad1565b6107e2565b6040516100ca9190611b0b565b61012c610bf5565b6040516100ca9190611b1d565b61014c610147366004611b8d565b610cc9565b005b600354610161906001600160a01b031681565b6040516001600160a01b0390911681526020016100ca565b61018c610187366004611ad1565b611095565b6040516100ca99989796959493929190611c89565b61014c6101af366004611b8d565b611420565b6101e26101c2366004611ad1565b805160208183018101805160028252928201919093012091525460ff1681565b60405190151581526020016100ca565b61014c610200366004611d2e565b61167e565b61014c610213366004611d81565b611766565b60605f805b600154811015610281575f6001828154811061023b5761023b611d9a565b905f5260205f20016040516102509190611de6565b9081526040519081900360200190206004015460ff1615610279578161027581611e58565b9250505b60010161021d565b505f8167ffffffffffffffff81111561029c5761029c611a34565b6040519080825280602002602001820160405280156102d557816020015b6102c2611826565b8152602001906001900390816102ba5790505b5090505f805b600154811015610733575f600182815481106102f9576102f9611d9a565b905f5260205f200160405161030e9190611de6565b9081526040519081900360200190206004015460ff161561072b575f6001828154811061033d5761033d611d9a565b905f5260205f20016040516103529190611de6565b9081526020016040518091039020604051806101200160405290815f8201805461037b90611dae565b80601f01602080910402602001604051908101604052809291908181526020018280546103a790611dae565b80156103f25780601f106103c9576101008083540402835291602001916103f2565b820191905f5260205f20905b8154815290600101906020018083116103d557829003601f168201915b5050505050815260200160018201805461040b90611dae565b80601f016020809104026020016040519081016040528092919081815260200182805461043790611dae565b80156104825780601f1061045957610100808354040283529160200191610482565b820191905f5260205f20905b81548152906001019060200180831161046557829003601f168201915b505050918352505060028201546001600160a01b031660208201526003820180546040909201916104b290611dae565b80601f01602080910402602001604051908101604052809291908181526020018280546104de90611dae565b80156105295780601f1061050057610100808354040283529160200191610529565b820191905f5260205f20905b81548152906001019060200180831161050c57829003601f168201915b5050509183525050600482015460ff16151560208201526005820154604082015260068201805460609092019161055f90611dae565b80601f016020809104026020016040519081016040528092919081815260200182805461058b90611dae565b80156105d65780601f106105ad576101008083540402835291602001916105d6565b820191905f5260205f20905b8154815290600101906020018083116105b957829003601f168201915b505050505081526020016007820180546105ef90611dae565b80601f016020809104026020016040519081016040528092919081815260200182805461061b90611dae565b80156106665780601f1061063d57610100808354040283529160200191610666565b820191905f5260205f20905b81548152906001019060200180831161064957829003601f168201915b5050505050815260200160088201805461067f90611dae565b80601f01602080910402602001604051908101604052809291908181526020018280546106ab90611dae565b80156106f65780601f106106cd576101008083540402835291602001916106f6565b820191905f5260205f20905b8154815290600101906020018083116106d957829003601f168201915b50505050508152505083838151811061071157610711611d9a565b6020026020010181905250818061072790611e58565b9250505b6001016102db565b50909392505050565b6001818154811061074b575f80fd5b905f5260205f20015f91509050805461076390611dae565b80601f016020809104026020016040519081016040528092919081815260200182805461078f90611dae565b80156107da5780601f106107b1576101008083540402835291602001916107da565b820191905f5260205f20905b8154815290600101906020018083116107bd57829003601f168201915b505050505081565b6107ea611826565b6002826040516107fa9190611e7c565b9081526040519081900360200190205460ff166108325760405162461bcd60e51b815260040161082990611e97565b60405180910390fd5b5f826040516108419190611e7c565b9081526020016040518091039020604051806101200160405290815f8201805461086a90611dae565b80601f016020809104026020016040519081016040528092919081815260200182805461089690611dae565b80156108e15780601f106108b8576101008083540402835291602001916108e1565b820191905f5260205f20905b8154815290600101906020018083116108c457829003601f168201915b505050505081526020016001820180546108fa90611dae565b80601f016020809104026020016040519081016040528092919081815260200182805461092690611dae565b80156109715780601f1061094857610100808354040283529160200191610971565b820191905f5260205f20905b81548152906001019060200180831161095457829003601f168201915b505050918352505060028201546001600160a01b031660208201526003820180546040909201916109a190611dae565b80601f01602080910402602001604051908101604052809291908181526020018280546109cd90611dae565b8015610a185780601f106109ef57610100808354040283529160200191610a18565b820191905f5260205f20905b8154815290600101906020018083116109fb57829003601f168201915b5050509183525050600482015460ff161515602082015260058201546040820152600682018054606090920191610a4e90611dae565b80601f0160208091040260200160405190810160405280929190818152602001828054610a7a90611dae565b8015610ac55780601f10610a9c57610100808354040283529160200191610ac5565b820191905f5260205f20905b815481529060010190602001808311610aa857829003601f168201915b50505050508152602001600782018054610ade90611dae565b80601f0160208091040260200160405190810160405280929190818152602001828054610b0a90611dae565b8015610b555780601f10610b2c57610100808354040283529160200191610b55565b820191905f5260205f20905b815481529060010190602001808311610b3857829003601f168201915b50505050508152602001600882018054610b6e90611dae565b80601f0160208091040260200160405190810160405280929190818152602001828054610b9a90611dae565b8015610be55780601f10610bbc57610100808354040283529160200191610be5565b820191905f5260205f20905b815481529060010190602001808311610bc857829003601f168201915b5050505050815250509050919050565b60606001805480602002602001604051908101604052809291908181526020015f905b82821015610cc0578382905f5260205f20018054610c3590611dae565b80601f0160208091040260200160405190810160405280929190818152602001828054610c6190611dae565b8015610cac5780601f10610c8357610100808354040283529160200191610cac565b820191905f5260205f20905b815481529060010190602001808311610c8f57829003601f168201915b505050505081526020019060010190610c18565b50505050905090565b6003546001600160a01b03163314610cf35760405162461bcd60e51b815260040161082990611ec2565b5f875111610d305760405162461bcd60e51b815260206004820152600a602482015269456d70747920736c756760b01b6044820152606401610829565b5f865111610d6d5760405162461bcd60e51b815260206004820152600a602482015269456d707479206e616d6560b01b6044820152606401610829565b600287604051610d7d9190611e7c565b9081526040519081900360200190205460ff1615610dce5760405162461bcd60e51b815260206004820152600e60248201526d50726f6a6563742065786973747360901b6044820152606401610829565b604080518082019091526006815265506f696e747360d01b6020918201528451908501207f35b2c805c184fe2089ef51ab9cc5a8fead3fff34de87569fce78dc60e0d759631480610e615750604080518082019091526006815265546f6b656e7360d01b6020918201528451908501207f34f8140d8f24dbdd026b281e7791dd4aa98eaddb670c5b9b8af33e39b7daddce145b610ea25760405162461bcd60e51b8152602060048201526012602482015271496e76616c6964206173736574207479706560701b6044820152606401610829565b604051806101200160405280888152602001878152602001866001600160a01b03168152602001858152602001600115158152602001428152602001848152602001838152602001828152505f88604051610efd9190611e7c565b90815260405190819003602001902081518190610f1a9082611f31565b5060208201516001820190610f2f9082611f31565b5060408201516002820180546001600160a01b0319166001600160a01b0390921691909117905560608201516003820190610f6a9082611f31565b50608082015160048201805460ff191691151591909117905560a0820151600582015560c08201516006820190610fa19082611f31565b5060e08201516007820190610fb69082611f31565b506101008201516008820190610fcc9082611f31565b50506001805480820182555f919091527fb10e2d527612073b26eecdfd717e6a320cf44b4afac2b0732d9fcbe2b7fa0cf601905061100a8882611f31565b50600160028860405161101d9190611e7c565b908152604051908190036020018120805492151560ff1990931692909217909155611049908890611e7c565b60405180910390207f9803a193045661ff203152952689c5f5228d2b5945423b84f7bd5f17d58ec97187878760405161108493929190611ff1565b60405180910390a250505050505050565b80516020818301810180515f825292820191909301209152805481906110ba90611dae565b80601f01602080910402602001604051908101604052809291908181526020018280546110e690611dae565b80156111315780601f1061110857610100808354040283529160200191611131565b820191905f5260205f20905b81548152906001019060200180831161111457829003601f168201915b50505050509080600101805461114690611dae565b80601f016020809104026020016040519081016040528092919081815260200182805461117290611dae565b80156111bd5780601f10611194576101008083540402835291602001916111bd565b820191905f5260205f20905b8154815290600101906020018083116111a057829003601f168201915b505050600284015460038501805494956001600160a01b039092169491935091506111e790611dae565b80601f016020809104026020016040519081016040528092919081815260200182805461121390611dae565b801561125e5780601f106112355761010080835404028352916020019161125e565b820191905f5260205f20905b81548152906001019060200180831161124157829003601f168201915b5050505060048301546005840154600685018054949560ff909316949193509061128790611dae565b80601f01602080910402602001604051908101604052809291908181526020018280546112b390611dae565b80156112fe5780601f106112d5576101008083540402835291602001916112fe565b820191905f5260205f20905b8154815290600101906020018083116112e157829003601f168201915b50505050509080600701805461131390611dae565b80601f016020809104026020016040519081016040528092919081815260200182805461133f90611dae565b801561138a5780601f106113615761010080835404028352916020019161138a565b820191905f5260205f20905b81548152906001019060200180831161136d57829003601f168201915b50505050509080600801805461139f90611dae565b80601f01602080910402602001604051908101604052809291908181526020018280546113cb90611dae565b80156114165780601f106113ed57610100808354040283529160200191611416565b820191905f5260205f20905b8154815290600101906020018083116113f957829003601f168201915b5050505050905089565b6003546001600160a01b0316331461144a5760405162461bcd60e51b815260040161082990611ec2565b60028760405161145a9190611e7c565b9081526040519081900360200190205460ff166114895760405162461bcd60e51b815260040161082990611e97565b5f8651116114c65760405162461bcd60e51b815260206004820152600a602482015269456d707479206e616d6560b01b6044820152606401610829565b604080518082019091526006815265506f696e747360d01b6020918201528451908501207f35b2c805c184fe2089ef51ab9cc5a8fead3fff34de87569fce78dc60e0d7596314806115595750604080518082019091526006815265546f6b656e7360d01b6020918201528451908501207f34f8140d8f24dbdd026b281e7791dd4aa98eaddb670c5b9b8af33e39b7daddce145b61159a5760405162461bcd60e51b8152602060048201526012602482015271496e76616c6964206173736574207479706560701b6044820152606401610829565b5f80886040516115aa9190611e7c565b9081526040519081900360200190209050600181016115c98882611f31565b506002810180546001600160a01b0319166001600160a01b038816179055600381016115f58682611f31565b50600681016116048582611f31565b50600781016116138482611f31565b50600881016116228382611f31565b50876040516116319190611e7c565b60405180910390207f53b86e39b57b8be063aa375f5d57af31363e2ac716faab00355004f3fd96e8ef88888860405161166c93929190611ff1565b60405180910390a25050505050505050565b6003546001600160a01b031633146116a85760405162461bcd60e51b815260040161082990611ec2565b6002826040516116b89190611e7c565b9081526040519081900360200190205460ff166116e75760405162461bcd60e51b815260040161082990611e97565b805f836040516116f79190611e7c565b908152604051908190036020018120600401805492151560ff1990931692909217909155611726908390611e7c565b6040519081900381208215158252907f65a79a54a7224229f26031445ebd354312b3a2c7934c9433255f2499fdda08279060200160405180910390a25050565b6003546001600160a01b031633146117905760405162461bcd60e51b815260040161082990611ec2565b6001600160a01b0381166117d55760405162461bcd60e51b815260206004820152600c60248201526b5a65726f206164647265737360a01b6044820152606401610829565b600380546001600160a01b038381166001600160a01b0319831681179093556040519116919082907f8be0079c531659141344cd1fd0a4f28419497f9722a3daafe3b4186f6b6457e0905f90a35050565b60405180610120016040528060608152602001606081526020015f6001600160a01b03168152602001606081526020015f151581526020015f81526020016060815260200160608152602001606081525090565b5f5b8381101561189457818101518382015260200161187c565b50505f910152565b5f81518084526118b381602086016020860161187a565b601f01601f19169290920160200192915050565b5f61012082518185526118dc8286018261189c565b915050602083015184820360208601526118f6828261189c565b915050604083015161191360408601826001600160a01b03169052565b506060830151848203606086015261192b828261189c565b9150506080830151611941608086018215159052565b5060a083015160a085015260c083015184820360c0860152611963828261189c565b91505060e083015184820360e086015261197d828261189c565b9150506101008084015185830382870152611998838261189c565b9695505050505050565b5f60208083016020845280855180835260408601915060408160051b8701019250602087015f5b828110156119f757603f198886030184526119e58583516118c7565b945092850192908501906001016119c9565b5092979650505050505050565b5f60208284031215611a14575f80fd5b5035919050565b602081525f611a2d602083018461189c565b9392505050565b634e487b7160e01b5f52604160045260245ffd5b5f82601f830112611a57575f80fd5b813567ffffffffffffffff80821115611a7257611a72611a34565b604051601f8301601f19908116603f01168101908282118183101715611a9a57611a9a611a34565b81604052838152866020858801011115611ab2575f80fd5b836020870160208301375f602085830101528094505050505092915050565b5f60208284031215611ae1575f80fd5b813567ffffffffffffffff811115611af7575f80fd5b611b0384828501611a48565b949350505050565b602081525f611a2d60208301846118c7565b5f60208083016020845280855180835260408601915060408160051b8701019250602087015f5b828110156119f757603f19888603018452611b6085835161189c565b94509285019290850190600101611b44565b80356001600160a01b0381168114611b88575f80fd5b919050565b5f805f805f805f60e0888a031215611ba3575f80fd5b873567ffffffffffffffff80821115611bba575f80fd5b611bc68b838c01611a48565b985060208a0135915080821115611bdb575f80fd5b611be78b838c01611a48565b9750611bf560408b01611b72565b965060608a0135915080821115611c0a575f80fd5b611c168b838c01611a48565b955060808a0135915080821115611c2b575f80fd5b611c378b838c01611a48565b945060a08a0135915080821115611c4c575f80fd5b611c588b838c01611a48565b935060c08a0135915080821115611c6d575f80fd5b50611c7a8a828b01611a48565b91505092959891949750929550565b5f610120808352611c9c8184018d61189c565b90508281036020840152611cb0818c61189c565b6001600160a01b038b16604085015283810360608501529050611cd3818a61189c565b905087151560808401528660a084015282810360c0840152611cf5818761189c565b905082810360e0840152611d09818661189c565b9050828103610100840152611d1e818561189c565b9c9b505050505050505050505050565b5f8060408385031215611d3f575f80fd5b823567ffffffffffffffff811115611d55575f80fd5b611d6185828601611a48565b92505060208301358015158114611d76575f80fd5b809150509250929050565b5f60208284031215611d91575f80fd5b611a2d82611b72565b634e487b7160e01b5f52603260045260245ffd5b600181811c90821680611dc257607f821691505b602082108103611de057634e487b7160e01b5f52602260045260245ffd5b50919050565b5f808354611df381611dae565b60018281168015611e0b5760018114611e2057611e4c565b60ff1984168752821515830287019450611e4c565b875f526020805f205f5b85811015611e435781548a820152908401908201611e2a565b50505082870194505b50929695505050505050565b5f60018201611e7557634e487b7160e01b5f52601160045260245ffd5b5060010190565b5f8251611e8d81846020870161187a565b9190910192915050565b602080825260119082015270141c9bda9958dd081b9bdd08199bdd5b99607a1b604082015260600190565b6020808252600990820152682737ba1037bbb732b960b91b604082015260600190565b601f821115611f2c57805f5260205f20601f840160051c81016020851015611f0a5750805b601f840160051c820191505b81811015611f29575f8155600101611f16565b50505b505050565b815167ffffffffffffffff811115611f4b57611f4b611a34565b611f5f81611f598454611dae565b84611ee5565b602080601f831160018114611f92575f8415611f7b5750858301515b5f19600386901b1c1916600185901b178555611fe9565b5f85815260208120601f198616915b82811015611fc057888601518255948401946001909101908401611fa1565b5085821015611fdd57878501515f19600388901b60f8161c191681555b505060018460011b0185555b505050505050565b606081525f612003606083018661189c565b6001600160a01b03851660208401528281036040840152611998818561189c56fea2646970667358221220bbf9a3a5cd7316a520657a0edbfa285af7c74b2bdcac79f888d3742674d64c6e64736f6c63430008180033",
        "nonce": "0x62",
        "chainId": "0xaa36a7"
      },
      "additionalContracts": [],
      "isFixedGasLimit": false
    },
    {
      "hash": "0xc9aad11e0f6f62689dc22c935148661b4a2072b09c8ca3d7bac415910b0ed77b",
      "transactionType": "CALL",
      "contractName": "ProjectRegistry",
      "contractAddress": "0x93b9e84e36d649d222d695282c87a160e4295c85",
      "function": "addProject(string,string,address,string,string,string,string)",
      "arguments": [
        "lighter",
        "Lighter",
        "0x000000000000000000000000006C696768746572",
        "Points",
        "https://x.com/lighter_xyz",
        "https://lighter.xyz",
        "Lighter is a high-performance orderbook DEX built for derivatives trading"
      ],
      "transaction": {
        "from": "0x61fedd6bc4ef1ab11cf8b6cc8f9b4faeb41b6f55",
        "to": "0x93b9e84e36d649d222d695282c87a160e4295c85",
        "gas": "0x7cffb",
        "value": "0x0",
        "input": "0x7dd67f9300000000000000000000000000000000000000000000000000000000000000e00000000000000000000000000000000000000000000000000000000000000120000000000000000000000000000000000000000000000000006c696768746572000000000000000000000000000000000000000000000000000000000000016000000000000000000000000000000000000000000000000000000000000001a000000000000000000000000000000000000000000000000000000000000001e0000000000000000000000000000000000000000000000000000000000000022000000000000000000000000000000000000000000000000000000000000000076c6967687465720000000000000000000000000000000000000000000000000000000000000000000000000000000000000000000000000000000000000000074c696768746572000000000000000000000000000000000000000000000000000000000000000000000000000000000000000000000000000000000000000006506f696e74730000000000000000000000000000000000000000000000000000000000000000000000000000000000000000000000000000000000000000001968747470733a2f2f782e636f6d2f6c6967687465725f78797a00000000000000000000000000000000000000000000000000000000000000000000000000001368747470733a2f2f6c6967687465722e78797a0000000000000000000000000000000000000000000000000000000000000000000000000000000000000000494c696768746572206973206120686967682d706572666f726d616e6365206f72646572626f6f6b20444558206275696c7420666f722064657269766174697665732074726164696e670000000000000000000000000000000000000000000000",
        "nonce": "0x63",
        "chainId": "0xaa36a7"
      },
      "additionalContracts": [],
      "isFixedGasLimit": false
    },
    {
      "hash": "0x2ee5988302d3368a4ca92a10b91ea3d4c2f50441a87a5d44d6b89d59ce820635",
      "transactionType": "CALL",
      "contractName": "ProjectRegistry",
      "contractAddress": "0x93b9e84e36d649d222d695282c87a160e4295c85",
      "function": "addProject(string,string,address,string,string,string,string)",
      "arguments": [
        "extended",
        "Extended",
        "0x0000000000000000000000657874656e64656400",
        "Points",
        "https://x.com/extendedxyz",
        "https://extended.xyz",
        "Extended brings perpetual futures to Layer 2"
      ],
      "transaction": {
        "from": "0x61fedd6bc4ef1ab11cf8b6cc8f9b4faeb41b6f55",
        "to": "0x93b9e84e36d649d222d695282c87a160e4295c85",
        "gas": "0x6f9ad",
        "value": "0x0",
        "input": "0x7dd67f9300000000000000000000000000000000000000000000000000000000000000e000000000000000000000000000000000000000000000000000000000000001200000000000000000000000000000000000000000000000657874656e64656400000000000000000000000000000000000000000000000000000000000000016000000000000000000000000000000000000000000000000000000000000001a000000000000000000000000000000000000000000000000000000000000001e000000000000000000000000000000000000000000000000000000000000002200000000000000000000000000000000000000000000000000000000000000008657874656e6465640000000000000000000000000000000000000000000000000000000000000000000000000000000000000000000000000000000000000008457874656e6465640000000000000000000000000000000000000000000000000000000000000000000000000000000000000000000000000000000000000006506f696e74730000000000000000000000000000000000000000000000000000000000000000000000000000000000000000000000000000000000000000001968747470733a2f2f782e636f6d2f657874656e64656478797a00000000000000000000000000000000000000000000000000000000000000000000000000001468747470733a2f2f657874656e6465642e78797a000000000000000000000000000000000000000000000000000000000000000000000000000000000000002c457874656e646564206272696e67732070657270657475616c206675747572657320746f204c6179657220320000000000000000000000000000000000000000",
        "nonce": "0x64",
        "chainId": "0xaa36a7"
      },
      "additionalContracts": [],
      "isFixedGasLimit": false
    },
    {
      "hash": "0x1bca0b6cca02f9ee83d285a7e5bf27f5c42d2868de1da9e618ad311f4eed4214",
      "transactionType": "CALL",
      "contractName": "ProjectRegistry",
      "contractAddress": "0x93b9e84e36d649d222d695282c87a160e4295c85",
      "function": "addProject(string,string,address,string,string,string,string)",
      "arguments": [
        "pacifica",
        "Pacifica",
        "0x0000000000000000000000007061636966696361",
        "Tokens",
        "https://x.com/pacificaxyz",
        "https://pacifica.xyz",
        "Pacifica is a decentralized exchange aggregator"
      ],
      "transaction": {
        "from": "0x61fedd6bc4ef1ab11cf8b6cc8f9b4faeb41b6f55",
        "to": "0x93b9e84e36d649d222d695282c87a160e4295c85",
        "gas": "0x6fa8b",
        "value": "0x0",
        "input": "0x7dd67f9300000000000000000000000000000000000000000000000000000000000000e000000000000000000000000000000000000000000000000000000000000001200000000000000000000000000000000000000000000000007061636966696361000000000000000000000000000000000000000000000000000000000000016000000000000000000000000000000000000000000000000000000000000001a000000000000000000000000000000000000000000000000000000000000001e0000000000000000000000000000000000000000000000000000000000000022000000000000000000000000000000000000000000000000000000000000000087061636966696361000000000000000000000000000000000000000000000000000000000000000000000000000000000000000000000000000000000000000850616369666963610000000000000000000000000000000000000000000000000000000000000000000000000000000000000000000000000000000000000006546f6b656e730000000000000000000000000000000000000000000000000000000000000000000000000000000000000000000000000000000000000000001968747470733a2f2f782e636f6d2f706163696669636178797a00000000000000000000000000000000000000000000000000000000000000000000000000001468747470733a2f2f70616369666963612e78797a000000000000000000000000000000000000000000000000000000000000000000000000000000000000002f5061636966696361206973206120646563656e7472616c697a65642065786368616e67652061676772656761746f720000000000000000000000000000000000",
        "nonce": "0x65",
        "chainId": "0xaa36a7"
      },
      "additionalContracts": [],
      "isFixedGasLimit": false
    },
    {
      "hash": "0xbf5a42d86f35fedc55a2232dfc318d72a48eb66f506a765694fb33bbabe24b72",
      "transactionType": "CALL",
      "contractName": "ProjectRegistry",
      "contractAddress": "0x93b9e84e36d649d222d695282c87a160e4295c85",
      "function": "addProject(string,string,address,string,string,string,string)",
      "arguments": [
        "variational",
        "Variational",
        "0x0000000076617269617469006f6E616c00000000",
        "Tokens",
        "https://x.com/variationalxyz",
        "https://variational.xyz",
        "Variational provides advanced trading strategies"
      ],
      "transaction": {
        "from": "0x61fedd6bc4ef1ab11cf8b6cc8f9b4faeb41b6f55",
        "to": "0x93b9e84e36d649d222d695282c87a160e4295c85",
        "gas": "0x6fb94",
        "value": "0x0",
        "input": "0x7dd67f9300000000000000000000000000000000000000000000000000000000000000e000000000000000000000000000000000000000000000000000000000000001200000000000000000000000000000000076617269617469006f6e616c00000000000000000000000000000000000000000000000000000000000000000000016000000000000000000000000000000000000000000000000000000000000001a000000000000000000000000000000000000000000000000000000000000001e00000000000000000000000000000000000000000000000000000000000000220000000000000000000000000000000000000000000000000000000000000000b766172696174696f6e616c000000000000000000000000000000000000000000000000000000000000000000000000000000000000000000000000000000000b566172696174696f6e616c0000000000000000000000000000000000000000000000000000000000000000000000000000000000000000000000000000000006546f6b656e730000000000000000000000000000000000000000000000000000000000000000000000000000000000000000000000000000000000000000001c68747470733a2f2f782e636f6d2f766172696174696f6e616c78797a00000000000000000000000000000000000000000000000000000000000000000000001768747470733a2f2f766172696174696f6e616c2e78797a0000000000000000000000000000000000000000000000000000000000000000000000000000000030566172696174696f6e616c2070726f766964657320616476616e6365642074726164696e67207374726174656769657300000000000000000000000000000000",
        "nonce": "0x66",
        "chainId": "0xaa36a7"
      },
      "additionalContracts": [],
      "isFixedGasLimit": false
    }
  ],
  "receipts": [
    {
      "status": "0x1",
      "cumulativeGasUsed": "0x6401bd",
      "logs": [],
      "logsBloom": "0x00000000000000000000000000000000000000000000000000000000000000000000000000000000000000000000000000000000000000000000000000000000000000000000000000000000000000000000000000000000000000000000000000000000000000000000000000000000000000000000000000000000000000000000000000000000000000000000000000000000000000000000000000000000000000000000000000000000000000000000000000000000000000000000000000000000000000000000000000000000000000000000000000000000000000000000000000000000000000000000000000000000000000000000000000000000",
      "type": "0x2",
      "transactionHash": "0x125c415190edcd1c727b100197678dcc5c487a0c80b4335d40f1c6876f261d3c",
      "transactionIndex": "0x41",
      "blockHash": "0xd3594d98ed9263c357e6c300237ec8d00ac02e20275d931f9ef15b2a076d9527",
      "blockNumber": "0x90475c",
      "gasUsed": "0x1c7aef",
      "effectiveGasPrice": "0xf4248",
      "from": "0x61fedd6bc4ef1ab11cf8b6cc8f9b4faeb41b6f55",
      "to": null,
      "contractAddress": "0x93b9e84e36d649d222d695282c87a160e4295c85"
    },
    {
      "status": "0x1",
      "cumulativeGasUsed": "0x69a9b1",
      "logs": [
        {
          "address": "0x93b9e84e36d649d222d695282c87a160e4295c85",
          "topics": [
            "0x9803a193045661ff203152952689c5f5228d2b5945423b84f7bd5f17d58ec971",
            "0x36b8d00546836d48aa1310924b601123c82b847124cdb1f8741ff857bc56161a"
          ],
          "data": "0x0000000000000000000000000000000000000000000000000000000000000060000000000000000000000000000000000000000000000000006c69676874657200000000000000000000000000000000000000000000000000000000000000a000000000000000000000000000000000000000000000000000000000000000074c696768746572000000000000000000000000000000000000000000000000000000000000000000000000000000000000000000000000000000000000000006506f696e74730000000000000000000000000000000000000000000000000000",
          "blockHash": "0xd3594d98ed9263c357e6c300237ec8d00ac02e20275d931f9ef15b2a076d9527",
          "blockNumber": "0x90475c",
          "blockTimestamp": "0x68f6c9c4",
          "transactionHash": "0xc9aad11e0f6f62689dc22c935148661b4a2072b09c8ca3d7bac415910b0ed77b",
          "transactionIndex": "0x42",
          "logIndex": "0x48",
          "removed": false
        }
      ],
      "logsBloom": "0x00000000000000000000000000000000000000000000000000040000000000000000010000000000000000000000000000000000000000000000000000000000000000000000000000000000000040000000000000000000000000000000000000000000000000000000000000000000000000000000000000000000000040000000000000000000020000000000000000000000000000000000000000000001000000000000000000000000000000000000000000000000004000000010000000000000200000000000000000000000000000000000000000000000000000000000000000000000000000000000000000000000000000000000000000000000",
      "type": "0x2",
      "transactionHash": "0xc9aad11e0f6f62689dc22c935148661b4a2072b09c8ca3d7bac415910b0ed77b",
      "transactionIndex": "0x42",
      "blockHash": "0xd3594d98ed9263c357e6c300237ec8d00ac02e20275d931f9ef15b2a076d9527",
      "blockNumber": "0x90475c",
      "gasUsed": "0x5a7f4",
      "effectiveGasPrice": "0xf4248",
      "from": "0x61fedd6bc4ef1ab11cf8b6cc8f9b4faeb41b6f55",
      "to": "0x93b9e84e36d649d222d695282c87a160e4295c85",
      "contractAddress": null
    },
    {
      "status": "0x1",
      "cumulativeGasUsed": "0x6eb67e",
      "logs": [
        {
          "address": "0x93b9e84e36d649d222d695282c87a160e4295c85",
          "topics": [
            "0x9803a193045661ff203152952689c5f5228d2b5945423b84f7bd5f17d58ec971",
            "0x55e394dd3094ba8ed7c43dc41b6f74edf871ce7b5ee66229564d04855965369a"
          ],
          "data": "0x00000000000000000000000000000000000000000000000000000000000000600000000000000000000000000000000000000000000000657874656e6465640000000000000000000000000000000000000000000000000000000000000000a00000000000000000000000000000000000000000000000000000000000000008457874656e6465640000000000000000000000000000000000000000000000000000000000000000000000000000000000000000000000000000000000000006506f696e74730000000000000000000000000000000000000000000000000000",
          "blockHash": "0xd3594d98ed9263c357e6c300237ec8d00ac02e20275d931f9ef15b2a076d9527",
          "blockNumber": "0x90475c",
          "blockTimestamp": "0x68f6c9c4",
          "transactionHash": "0x2ee5988302d3368a4ca92a10b91ea3d4c2f50441a87a5d44d6b89d59ce820635",
          "transactionIndex": "0x43",
          "logIndex": "0x49",
          "removed": false
        }
      ],
      "logsBloom": "0x00000000000000000000000000000000000000000000000000000000000000000000000000000000000000000000000000000000000000000000000000000000000000000000000000000000000040000000000004000000000000000000000000000000000000000000000000000000000000000000000000000000000040000000000000000000020000000000000000000000000000000000000000000101000000000000000000000000000000000000000000000000004000000010000000000000000000000000000000000000000000000000000000000000000000000000000000000000000000000000000000000000000000000000000000000001",
      "type": "0x2",
      "transactionHash": "0x2ee5988302d3368a4ca92a10b91ea3d4c2f50441a87a5d44d6b89d59ce820635",
      "transactionIndex": "0x43",
      "blockHash": "0xd3594d98ed9263c357e6c300237ec8d00ac02e20275d931f9ef15b2a076d9527",
      "blockNumber": "0x90475c",
      "gasUsed": "0x50ccd",
      "effectiveGasPrice": "0xf4248",
      "from": "0x61fedd6bc4ef1ab11cf8b6cc8f9b4faeb41b6f55",
      "to": "0x93b9e84e36d649d222d695282c87a160e4295c85",
      "contractAddress": null
    },
    {
      "status": "0x1",
      "cumulativeGasUsed": "0x73c3ec",
      "logs": [
        {
          "address": "0x93b9e84e36d649d222d695282c87a160e4295c85",
          "topics": [
            "0x9803a193045661ff203152952689c5f5228d2b5945423b84f7bd5f17d58ec971",
            "0xb4d34347c29d68077a7fed55302ed02225bc583470585b61802a0075589af680"
          ],
          "data": "0x0000000000000000000000000000000000000000000000000000000000000060000000000000000000000000000000000000000000000000706163696669636100000000000000000000000000000000000000000000000000000000000000a0000000000000000000000000000000000000000000000000000000000000000850616369666963610000000000000000000000000000000000000000000000000000000000000000000000000000000000000000000000000000000000000006546f6b656e730000000000000000000000000000000000000000000000000000",
          "blockHash": "0xd3594d98ed9263c357e6c300237ec8d00ac02e20275d931f9ef15b2a076d9527",
          "blockNumber": "0x90475c",
          "blockTimestamp": "0x68f6c9c4",
          "transactionHash": "0x1bca0b6cca02f9ee83d285a7e5bf27f5c42d2868de1da9e618ad311f4eed4214",
          "transactionIndex": "0x44",
          "logIndex": "0x4a",
          "removed": false
        }
      ],
      "logsBloom": "0x00000000000000000000000000000000000000000000000000000000000000000000000000000000000000000000000000000000000000000000000000000000000000000000000000000000000040000000000000000000000000000000000000000000000000000000000000000000000000000000000000000000000040000000000000000000020000000000000010000000000000000000000000000001000000000000000000000000080000080000000000000000004000000010000000000000000000000000000000000000000000000000000000000000000000000000000000000000000000000000000000000000000000000000000000000000",
      "type": "0x2",
      "transactionHash": "0x1bca0b6cca02f9ee83d285a7e5bf27f5c42d2868de1da9e618ad311f4eed4214",
      "transactionIndex": "0x44",
      "blockHash": "0xd3594d98ed9263c357e6c300237ec8d00ac02e20275d931f9ef15b2a076d9527",
      "blockNumber": "0x90475c",
      "gasUsed": "0x50d6e",
      "effectiveGasPrice": "0xf4248",
      "from": "0x61fedd6bc4ef1ab11cf8b6cc8f9b4faeb41b6f55",
      "to": "0x93b9e84e36d649d222d695282c87a160e4295c85",
      "contractAddress": null
    },
    {
      "status": "0x1",
      "cumulativeGasUsed": "0x78d21a",
      "logs": [
        {
          "address": "0x93b9e84e36d649d222d695282c87a160e4295c85",
          "topics": [
            "0x9803a193045661ff203152952689c5f5228d2b5945423b84f7bd5f17d58ec971",
            "0xdd2e0202b9bad02289d35f0c70881d143646831a81bf7292d12af2d9ebffe83c"
          ],
          "data": "0x00000000000000000000000000000000000000000000000000000000000000600000000000000000000000000000000076617269617469006f6e616c0000000000000000000000000000000000000000000000000000000000000000000000a0000000000000000000000000000000000000000000000000000000000000000b566172696174696f6e616c0000000000000000000000000000000000000000000000000000000000000000000000000000000000000000000000000000000006546f6b656e730000000000000000000000000000000000000000000000000000",
          "blockHash": "0xd3594d98ed9263c357e6c300237ec8d00ac02e20275d931f9ef15b2a076d9527",
          "blockNumber": "0x90475c",
          "blockTimestamp": "0x68f6c9c4",
          "transactionHash": "0xbf5a42d86f35fedc55a2232dfc318d72a48eb66f506a765694fb33bbabe24b72",
          "transactionIndex": "0x45",
          "logIndex": "0x4b",
          "removed": false
        }
      ],
      "logsBloom": "0x00000000000000000000000000000800000000000000100000000000000000008000000000000000000000000000000000000000000000000000000000000000000000000000000000000000000040000000000000000000000000000000000000000000000000000000000000000000000000000000000000000000000040000000000000000000020000000000000000000000000000000000000000000001000000000000000000000000000000000000000000000000004000000010000000000000000000000000000000000000000000000000000000000000000000000000000000000000000000000000000000000000000000000000000000000000",
      "type": "0x2",
      "transactionHash": "0xbf5a42d86f35fedc55a2232dfc318d72a48eb66f506a765694fb33bbabe24b72",
      "transactionIndex": "0x45",
      "blockHash": "0xd3594d98ed9263c357e6c300237ec8d00ac02e20275d931f9ef15b2a076d9527",
      "blockNumber": "0x90475c",
      "gasUsed": "0x50e2e",
      "effectiveGasPrice": "0xf4248",
      "from": "0x61fedd6bc4ef1ab11cf8b6cc8f9b4faeb41b6f55",
      "to": "0x93b9e84e36d649d222d695282c87a160e4295c85",
      "contractAddress": null
    }
  ],
  "libraries": [],
  "pending": [],
  "returns": {},
  "timestamp": 1761003990280,
  "chain": 11155111,
  "commit": null
}